S014000073756374696F6E5F70756D702E73726563EA
S11300000C949C130C94C4130C94C4130C94C41338
S11300100C94C4130C94C4130C94C4130C94C41300
S11300200C94C4130C94C4130C94C4130C94C413F0
S11300300C94C4130C94C4130C94C4130C94C413E0
S11300400C94C31C0C94C4130C948D1A0C94BF1AF6
S11300500C94C4130C94C4130C94C4130C94C413C0
S11300600C94EC310C94C413FD200C2110211421A8
S113007018211C212021242128212C213021342144
S113008038213C214021442148214C215021542134
S113009058215C2100407A10F35A00A0724E1809CE
S11300A00010A5D4E80000E87648170000E40B54DB
S11300B0020000CA9A3B000000E1F50500008096AA
S11300C09800000040420F000000A08601000000DC
S11300D0102700000000E803000000006400000096
S11300E000000A00000000000100000000002C765F
S11300F0D888DC674F0823DFC1DFAE59E1B1B7967A
S1130100E5E3E453C63AE651997696E8E6C28426D6
S1130110EB898C9B62ED407C6FFCEFBC9C9F40F2B2
S1130120BAA56FA5F490055A2AF75C936B6CF9672E
S11301306DC11BFCE0E40D47FEF520E6B500D0EDF3
S1130140902E0300943577050080841E080000205B
S11301504E0A000000C80C333333330F986E1283F9
S11301601141EF8D2114893BE65516CFFEE6DB18CD
S1130170D1844B381BF77C1D901DA4BBE424203292
S113018084725E228100C9F124ECA1E53D270000C0
S1130190000000000000000000003FFFFF003FFFE0
S11301A081003FFF81003FFF81F83FFF80083FFF50
S11301B080083FFF80083FFF80083FFF80083FFF23
S11301C080083FFF81F83FFF81003FFF81003FFF30
S11301D0FF000000000000000000000000007E049A
S11301E0E501207E1D000000000600010000021051
S11301F00803F1040006060A01F109000C100C00C2
S1130200F121000A120C01F0380012111401F05F00
S11302100011101301F1810002060501F1830006AB
S1130220140801F1920006140801F1A100080A0C57
S113023003F2AB000B0B0E01F6BB0003060602FE35
S1130240BE0006010801FBBF0002030602FEC00057
S113025007110700F0CF000A110C01F0E5000611A8
S11302600C03F0F2000A0F0C01F205010A100C0154
S1130270F119010A100C01F12D010A110C01F043CE
S1130280010A110C01F059010A100C00F16D010A68
S1130290110C01F083010A120C01F09A01020C0600
S11302A002F59D01040F0602F5A5010C0D0E01F4E3
S11302B0B9010C060E01F8C2010C0D0E01F5D601B0
S11302C008110B02F0E70111101502F109021110D7
S11302D01100F12B020C100F01F143020F10100159
S11302E0F1610210101100F181020E100F00F19D56
S11302F0020E100E00F1B90210101101F1D9021012
S1130300101100F1F90206100801F10503081009A3
S113031000F1150310101101F135030F100F00F156
S1130320530313101501F1790310101101F199030E
S11303300F101101F1B7030C100E00F1CF031014CC
S11303401101F1F7030F101000F115040B100D004B
S1130350F12B040F100F00F1490410101101F16981
S11303600411101100F18B0416101700F1B70411D9
S1130370101100F1D90410101100F1F9040E100F3E
S113038001F1150505140802F1220507110700F013
S1130390310505140801F13E050A090B01F14A056E
S11303A00C010C00034C0505040600F14F050A0B73
S11303B00A01F65D050A110C01F07305080B0B0127
S11303C0F67E050A110C01F094050A0B0B01F6A246
S11303D00509110900F0B6050C100B00F6CE050B4B
S11303E0110C00F0E60505100700F1F005061508EC
S11303F000F100060B110C01F0180605110600F0BF
S11304002306120B1300F63C060B0B0C00F64C06ED
S11304100A0B0C01F65A060B100C00F670060A10B3
S11304200C01F68406080B0800F68F06070B090179
S1130430F69906060D0701F4A3060A0B0C01F6B1A2
S1130440060B0B0B00F6C106100B1000F6D7060BBB
S11304500B0C00F6E7060B100B00F6FD060A0B0A60
S113046000F60B0705150C02F0190701110502F03F
S11304701C0705150C05F12A070C030C00FAFFFEF6
S1130480A83FCF3CF38A200C40C408408C08C7FF27
S1130490188188108108FFE118310310310210041B
S11304A007C65B12C4B10F41F01E01E0581384E18A
S11304B03C4F963F010000040383039F81C22060E8
S11304C09038240C12030D00C6479E23100984049F
S11304D0E10330408C20430810C4081E0003C0020E
S11304E0300308018400C4007CF81C381E08330C57
S11304F031C41074183A0C0E070383C3E27E3EFF26
S1130500A0042108610C30C30C30C10418204081C0
S11305108102041820830C30C30C308610842030F0
S1130520B3D754387CD3303010040080100200411B
S1130530FFC100200400801000DF9500FCFC060CC5
S11305401060C1060C1060C1060C1060C01E0CC601
S11305501986C0B03C0F03C0F03C0F03C0D8661826
S1130560CC1E0011C30C30C30C30C30C30C30CFCC4
S11305701E18C41A06018060100C020100C060300D
S1130580181FF81E18E81806010080F07E03C070DA
S11305900C0300C06E11F80100C0702C0B04C230B3
S11305A08C4320C833FF0300C0300C0003F100402B
S11305B0180F80F80E01C0300C0300C0201B8C7C87
S11305C00001C3C1C0C070180EF3CEC1F03C0F03CC
S11305D0C0D83608C61E003FD03808060180401037
S11305E00C020080201004010080201F186C0F03EF
S11305F0C0F86730F01E09E63B07C0F03C0D861FCB
S1130600001E08C61B02C0F03C0F03E0DC73EC06BE
S11306100180C07038381800FC003FCCC0000006D0
S113062077124000000701E0781E0700C00F003C6D
S113063000F003C0070010FFF000000000000FFFEF
S1130640800E003C00F003C00F00300E0781E078FC
S11306500E0000007C8683C30303060C08081010F8
S1130660000030303003F0060606008600260ED364
S11306700CC70C638431C618E308718C4CC6463D24
S1130680C18000301007F000800060007000380066
S11306902E00130019C008600438040C03FF030380
S11306A08100E18070C03DF03FFF830C3063063071
S11306B0630630C3F030E30630330330330730EFE2
S11306C0FC07E2383CC03B003600380030006000D4
S11306D0C001800300030006000600470303F8FF7F
S11306E0C03078301C300E30063003300330033015
S11306F0033003300330063006300C3078FFC0FF7F
S1130700FCC033004C003000C043030FFC3030C049
S113071043000C003008C02303BFFEFFFCC03300BD
S11307204C003000C043030FFC3030C043000C00C9
S11307303000C003003F0007E41C3C300C600C6038
S113074004C000C000C03FC00CC00CC00C600C60F2
S11307500C300C1C1C07E0FC3F300C300C300C300F
S11307600C300C300C3FFC300C300C300C300C30A6
S11307700C300C300CFC3FFCC30C30C30C30C30CED
S113078030C33F3F0C0C0C0C0C0C0C0C0C0C0C0C64
S11307900CC8F0FCFE303830203040308033003656
S11307A0003E003700338031C030E03070303830E4
S11307B03CFC7FFC006000C00180030006000C00CC
S11307C0180030006000C00180030026008C077F01
S11307D0FEF801E70070E00E1E03C2C0585C1B095E
S11307E08261384C27118472308EC610D0C21E1814
S11307F041831C3067C43FF01F780E3C043E042E36
S1130800042704238423C421E420E42074203C200E
S11308101C200C700CF80407C03060C06300660034
S1130820D800F001E003C007800F001B006600C67B
S113083003060C03E0FF830E30730330330330638D
S11308400E3F8300300300300300300FC00FE01868
S1130850303018600C600CC006C006C006C006C06C
S113086006C006600C600C3018183007C003C001C5
S1130870E00078001FFF8061C0C1C18183030606C8
S11308800C1C18703F806700C7018F030F060E0C05
S11308900E7E0F1F461981302702F00F00F807C0A3
S11308A03803C0340680DC327CFFFF860E0C1C1833
S11308B01030006000C00180030006000C00180026
S11308C030006000C007E0FC1F300E3004300430FC
S11308D00430043004300430043004300430043074
S11308E00418081C1807E0FE0F9C030E0183008106
S11308F0C040604038200C300710019800E80034F4
S1130900001E00060003000100FCFC3DE1C06383FF
S113091001860E041C1810707080C3C2038B080675
S11309206E401D1900747800E1E00383800E0C0012
S113093010100040407F1F9E03070301C300710095
S113094019000F00038001E001B0019C00870081C1
S1130950C080E0C079F87FFE1F780C38081C180EA0
S1130960100620076003C00180018001800180011E
S1130970800180018007E07FFB00C807203801C0A8
S113098007003801C007003801C00E003805C03E1A
S113099001BFFEFE318C6318C6318C6318C631F07A
S11309A0C1810306040C1810306040C1810306F8AD
S11309B0C6318C6318C6318C6318C7F00C0701600C
S11309C0D82318C41B0680C0FFF0C70C303E318CFE
S11309D0300C0307C6330CC331C7B8203806018076
S11309E0601806F1C661D8360D8360D82619843E96
S11309F0001E2363C0C0C0C0C0E1723C0080E01888
S1130A0006018061D88E61B06C1B06C1B06E19CE30
S1130A103DC01E08E41BFEC0300C0381609C41E015
S1130A200F08C406030181F06030180C060301802E
S1130A30C060FC001F031F60C60C60C3181F0200C7
S1130A404007FC402402C02C04E083F0301E00C0A8
S1130A50180300600DE1CE30C618C318630C618C16
S1130A60318679E031800009C6318C6318DF0C309F
S1130A70000031C30C30C30C30C30C30F2F0201C26
S1130A800180300600C018FB08620C81E03E06E0DD
S1130A90CE18C30EF3E0138C6318C6318C6318C6EA
S1130AA0F8F78F0E3CE30C18C30630C18C30630C8E
S1130AB018C30630C18C30679E3CF78718C318638F
S1130AC00C618C318630C619E7801E18E41B03C004
S1130AD0F03C0F03609C41E0778718C398330660AD
S1130AE0CC198330C710DC180300600C07E01E8C9F
S1130AF0E61B06C1B06C1B06E198E3D806018060D2
S1130B00181F377B30303030303030307C7B0E1C57
S1130B101E0F07C3878AE0218F98618618618619A2
S1130B2038E3986619866198661986619CE3DCF857
S1130B30EE08C1184188320340680600C01000F373
S1130B40E7618370C230C230C4196419680E380E6C
S1130B50380C300410FBC630640F00C00C03C0987E
S1130B60218C3BCF80F8EE08C118418831034068DE
S1130B700600C008020040101E03807F90E0301879
S1130B800E0301C0E0305C3FF8198C6318C631B025
S1130B906318C6318C6180FFFF80C318C6318C6333
S1130BA006C6318C6318CC0038066241C04D0EB4C1
S1130BB00B207E2A00000000090001000004180C2C
S1130BC005E90C0008090E03E9150011171100EAE4
S1130BD046000D1B1102E8720019171D02EABA0043
S1130BE019191B01E8090103090702E90D01091E8E
S1130BF00C02E92F01091E0C01EA51010C0E12032B
S1130C00E9660110121402EF8A0104090902FD8F3A
S1130C100108020C01F8910104040902FD93010A80
S1130C20180A00E9B10110181201E9E1010A1812C9
S1130C3003E9FF0110181101E92F020D181102E94F
S1130C40560210171200EA84020D181102E9AB02D1
S1130C5010181201E9DB020E171201EA04030C1941
S1130C601202E82A03101A1101E85E0304110902B2
S1130C70F0670305160902F0750312121401EF9EC2
S1130C800312091401F4B30312121401EFDC030D6F
S1130C90191002E8050418191E03E850041817195E
S1130CA001EA950414171601EACF0416181701E98E
S1130CB0110517171901EA540514171502EA8E05D0
S1130CC011171402EABF0517181901E904061617CB
S1130CD01902EA440609170B02EA5E060C170D0016
S1130CE0EA810617171902EAC40613171502EAFB6C
S1130CF0061D171F01EA4F0717171901EA92071774
S1130D00181901E9D70712171401EA0B08171E195D
S1130D1001E9620815171702EA9F0810181301E980
S1130D20CF0814171501EA090916171902EA490927
S1130D3018171900EA8E0921172100EAED0919177D
S1130D401900EA350A18171901EA7A0A1517150065
S1130D50EAB70A071C0C03EAD00A0A180A00E9EEEB
S1130D600A071C0C02EA070B0F0D1001EA200B12F4
S1130D7002110003250B08060901E92B0B0D100FC6
S1130D8002F1450B10191101E8770B0E101001F157
S1130D90930B10191101E8C50B0D101001F1DF0BB5
S1130DA00D190D00E8080C10181001F1380C101979
S1130DB01101E86A0C08180A00E9820C09200C00E9
S1130DC0E9A60C11191201E8DC0C08190900E8F570
S1130DD00C1A101B01F1290D10101101F1490D100D
S1130DE0101101F1690D10181101F1990D1018116C
S1130DF001F1C90D0B100C01F1DF0D0A100D01F109
S1130E00F30D08130A02EE060E10101101F1260E5E
S1130E1010101000F1460E18101800F1760E111083
S1130E201100F1980E10181000F1C80E0E100F00EA
S1130E30F1E40E081E1103E9020F02180702E90883
S1130E400F081E1106EA260F10041101F66FFFFFAA
S1130E50FE6666666440006FF6E7E7E7E7E746424A
S1130E6042420306018300C18061C030C03860186B
S1130E7030FFFF7FFF8306018600C300C187FFFFA9
S1130E80FFFE18300C180618060C0306018300C177
S1130E908060C002001003E064E623611B0858422E
S1130EA0E203901F807E00FC01F00FC04E02381058
S1130EB0E087043C21E11BC9CFFC1F8010008007A0
S1130EC080200FF0700F07D00F02180701180700D9
S1130ED08C03804C01804400C0260060220F303314
S1130EE01FCC731E37F18E19E18E0400860200C7F1
S1130EF00100C3808061808060C040306040303831
S1130F00E0300FE01803C0007800007E000061802C
S1130F10006060003030001818000C0C00060C0053
S1130F20038E0001CE00007C3FC03807803E038062
S1130F3077018073C080F0F0C0707CC0781E403CA4
S1130F4007C01E01E00F00780FC0FF0DF0C7FC7F43
S1130F50C1FC1F803C00FFFE9240008080808080A6
S1130F60C0C0607030181C0E070381C0E070380CDC
S1130F70060380C060180C0300C0300C80300C03E2
S1130F8000C060180C070180C070381C0E07038174
S1130F90C0E0603038180C0C0404040404000C0095
S1130FA0C00C0C46E4F75E1F00C0178E4EE4FCC66E
S1130FB00C00C0018001800180018001800180015A
S1130FC0800180FFFFFFFF0180018001800180011B
S1130FD0800180018001806FFF112480FFFF6FF684
S1130FE000C06018060380C0301C060180E0300C8D
S1130FF007018060380C0301C060180E030003E091
S11310000E701C38381C381C781E700EF00FF00F50
S1131010F00FF00FF00FF00FF00FF00FF00F700E55
S1131020700E781E381C381C1C380C3003C00603A4
S113103083E3380E0380E0380E0380E0380E03802B
S1131040E0380E0380E0380E0381E1FF07C01FF093
S11310503FF870F8603CC03C801C001C001C001869
S1131060001800300030006000C000800100020061
S11310700400080110023FFE7FFCFFFC0FC0FF0CC0
S11310803C80E403001800C00400400400F81FE0A2
S11310900F001C00E003001800C006006003787312
S11310A0FF0FC000300030007000F000B0013003CA
S11310B0300630043008301830103020306030C032
S11310C030FFFFFFFF003000300030003000300000
S11310D03000007FC3FE1FE1800800C007C07F818D
S11310E0FF00FC01E007801C006003001800C0063C
S11310F00060077873FF0FC0000E00F803C007807C
S11311000F001E003C007C0079F07FFCF83CF01ED0
S1131110F01FF00FF00FF00FF00F700F780F780E34
S11311203C1E1E3C0FF807E03FFDFFF7FFF0068072
S113113018006003000C0030018006001800E00372
S1131140000C0070018006003800C003001C006021
S1131150000F83FC70E607C03C03C03E0370678C3D
S11311603D81F00F817C21E60EC07C03C03C03C0AE
S1131170360670E3FC0F8007C01FF03C78383C78DB
S11311801E701EF00EF00FF00FF00FF00FF00FF8BE
S11311900F780F3C3F1FEE0F9E001E003C003800EE
S11311A07800F001E007801E0070006FF600000078
S11311B00006FF6067BCC0000000000019EF784221
S11311C022200000C000F001F801F801F801F0034A
S11311D0F003F000F0003E0007E0007E0003E000B2
S11311E03E0003F0003F0003C00010FFFFFFFFF0CC
S11311F00000000000000000000003FFFFFFFFC02C
S113120080003C000FC000FC0007C0007C0007E029
S1131210007E0007C000F000FC00FC00F801F801AB
S1131220F801F800F0003000001F81FF187D81EC08
S113123007F03F81E00F007003803801800800C090
S1131240040020020010008000000003003C01E0C4
S11312500700007F0001FFC00780F00F00381C006A
S11312601C38000C380006701E02703FE3F071E178
S1131270E0E0C1E0C0C1E0C1C1E181C1E18183E13D
S11312808382E1838671C78C70F9F838F0F03C00F2
S1131290001E000007807003FFE0007F00001000C4
S11312A0003800003800003800007C00005C0000BA
S11312B0DE00008E00018F00018700030780030316
S11312C0800203C00603C007FFC00FFFE00C01E06B
S11312D01800F01800F030007830007870007CFCC2
S11312E001FFFFFC03FFF81E0FC1E03C1E01E1E01B
S11312F01E1E01E1E01E1E03C1E0781FFE01FFF087
S11313001E07C1E01E1E00F1E00F1E00F1E00F1EDB
S113131000F1E01E1E07E3FFF8FFFE0000FE080FC9
S1131320FF60FC1F87C01E3C0038F0006780019EF0
S11313300002F00003C0000F00003C0000F00003B6
S1131340C0000F00003C0000780001E00003C00072
S11313500F00021F00383F03807FFC003F80FFFC2A
S1131360007FFF00783F80F00F81E00F83C00F07FC
S1131370800F0F001E1E001E3C003C780078F00019
S1131380F1E001E3C003C780078F001E1E003C3C50
S113139000F07801E0F00F81E07E07FFF03FFF00EE
S11313A000FFFF87FFF83C0183C0083C0083C000B6
S11313B03C0003C0003C0203C0603FFE03FFE03C6E
S11313C00603C0203C0003C0003C0003C0013C00F5
S11313D023C0063C01E7FFFEFFFFC0FFFFBFFFCFB6
S11313E000678013C009E000F00078003C021E038F
S11313F00FFF87FFC3C061E010F00078003C001EBF
S1131400000F00078003C003F003FC0000FE040784
S1131410FFB81F03F0F801E3E001C780019E00015B
S11314203C0000F00001E00003C000078007FF005B
S113143007DE0007BC000F78001E78003CF000783F
S1131440F000F1F001E1F003C1F81F00FFFC003FE0
S113145080FF03FDF807E3C00F0F003C3C00F0F0F1
S113146003C3C00F0F003C3C00F0F003C3FFFF0FA9
S1131470FFFC3C00F0F003C3C00F0F003C3C00F045
S1131480F003C3C00F0F003C3C00F1F807EFF03F3E
S1131490C0FFBF0F0783C1E0F0783C1E0F0783C174
S11314A0E0F0783C1E0F0783C3F3FE0FF07E03C009
S11314B03C03C03C03C03C03C03C03C03C03C03CF1
S11314C003C03C03C03C03C638F38FF07C00FF0725
S11314D0FCFC03C0F00701E01C03C0600781800F1F
S11314E006001E18003C6000798000FF0001FF0028
S11314F003DF00078F000F0F001E0F003C0F007862
S11315000F00F01F01E01F03C01F0FC03F3FC1FFCA
S113151080FF000FC000F0001E0003C00078000F21
S11315200001E0003C00078000F0001E0003C00042
S113153078000F0001E0003C00078004F0011E0069
S113154063C03CFFFFBFFFE0FC0003F9F0001F870E
S11315508001F83E000FC1F0005E0BC006F05E0093
S1131560378278033C13C019E08F018F04780C781C
S113157021E0C3C10F061E083C60F041E307820767
S1131580B03C103D81E081F80F0407C078203C0393
S1131590C100E01E1C0601FBF8101FE0FC00FE78F1
S11315A00070780040F80081F80102F80204F804A1
S11315B008F00811F01021F02041F04081F0810181
S11315C0F10201E20403E40803E81003F02003E05D
S11315D04003C080038100070700063F8004000029
S11315E0FE0007FF003E0F80F00783C007878007D7
S11315F01E000F3C001EF0001FE0003FC0007F8073
S113160000FF0001FE0003FC0007F8000F78003C17
S1131610F00078E001E1E003C1E00F01F07C00FF9D
S1131620E0007F00FFF81FFF83C1F0F01E3C07CFEE
S113163000F3C03CF00F3C03CF01F3C078F07C3FD3
S1131640FE0FFE03C000F0003C000F0003C000F0DA
S1131650003C001F000FF00000FE0007FF003E0FDB
S113166080F00783C00787800F1E000F3C001EF028
S1131670001DE0003FC0007F8000FF0001FE00036A
S1131680FC0007F8000F70001CF00079E000F1E0A6
S113169003C1C00701C01C01E0F0007F00007C0012
S11316A0007C00007C00007E00001F00000FC0FFD3
S11316B0F003FFF00F07C0781E03C0781E03C0F0CC
S11316C01E0780F03C0781E0780F0F807FF803FE4F
S11316D0001E7800F1E00787803C3C01E0F00F0336
S11316E0C0780F03C07C3F01F3FC07E007841FFCB4
S11316F03C3E300E70067006700278007C003F009D
S11317001FC00FE003F800FC003E001F800F800F95
S1131710C00FE00F701E783C4FF843F0FFFFFFFF4F
S1131720FFE0F07C0F0380F0100F0000F0000F00CA
S113173000F0000F0000F0000F0000F0000F0000A8
S1131740F0000F0000F0000F0000F0000F0000F0A8
S1131750001F8003FC00FF01FDF801C3C0020F005D
S1131760083C0020F00083C0020F00083C0020F079
S11317700083C0020F00083C0020F00083C0020F69
S113178000083C0020F00081E0040780300F8180D5
S11317901FFC001FC000FFC07F3E001E1E000C0E79
S11317A000180F001807001007803007803003C0AE
S11317B06003C06001E04001E0C000F0C000F180BF
S11317C0007180007B00003B00003E00001E000012
S11317D01E00000C00000C00000800FF9FF03F9F5B
S11317E003E0070780F00303C0780180E01E008057
S11317F0780F00C01C0380600F01E0200781F030E7
S113180001C0BC1800F0DE080078670C001E23C479
S1131810000F31E60003907B0001F83D0000FC0F4F
S113182080003C07C0001E03C0000F00E00003005E
S1131830700001801000008008007FE0FF0FC01ED0
S113184003E00E00F006003C06000F0600078600C9
S113185001E600007B00003F00000F000003C00011
S113186003F000037800019E000187800183E001FA
S113187080F001803C01801F01C007C1E003F3FE3A
S11318800FFEFFC0FF7E001C1E00181F00300F005B
S11318906007806003C0C003E18001E18000F300C1
S11318A000FE00007E00003C00003C00003C000004
S11318B03C00003C00003C00003C00003C00003CBC
S11318C000007E0001FF803FFFF1FFFF9C0078C015
S11318D0078400380003C0003C0003C0001C000162
S11318E0E0001E0001E0000E0000F0000F0000F018
S11318F000070000780047800678003380073FFF28
S1131900FBFFFFC0FF83060C183060C183060C1870
S11319103060C183060C183060C18307F0C018061C
S11319200180700C0300E0180601C0300C038060D5
S1131930180700C0300E0180601C03FE0C183060D4
S1131940C183060C183060C183060C183060C18353
S1131950060C1FF003800F001F007600CE038C06D8
S11319601C1C183030E0318067006C00C0FFFFFFA2
S1131970FFF0C0E070180C031F038C3831C18E0CCB
S113198000600F019830C3863831C18E0C78E5FBB6
S1131990CF0C00003800F800380038003800380058
S11319A03800380039F03BFC3C3E380E380F38071D
S11319B038073807380738073806380E380C3C1C07
S11319C01FF007E007E07FE387D80F601B000C00DF
S11319D03000C003000E003C017819FFC3FE03E091
S11319E00000001C007C001C001C001C001C001CCF
S11319F0001C079C1FDC387C703C701C601CE01CC5
S1131A00E01CE01CE01CE01CF01C701C7C3E3FDF72
S1131A100F900F81FF083C80E7FF7FFF001800C094
S1131A2007003803E037833FF0FF03F001F03FC3C2
S1131A308E1800C00E007003801C03FE1FF03801D6
S1131A40C00E007003801C00E007003801C00E00C7
S1131A507007C0FF800FC01FFF38FF707070707078
S1131A60307030703038201C600F8010002000600F
S1131A70007FE03FFC1FFE20064002C002C004F0CD
S1131A80187FF01F8000003800F800380038003854
S1131A900038003800380038F03BF83E3C3C1C3835
S1131AA01C381C381C381C381C381C381C381C3892
S1131AB01C381C7C3EFE7F183C3C180000000004CF
S1131AC03C7C1C1C1C1C1C1C1C1C1C1C1C3CFF03E8
S1131AD003C1E060000000000083C3E070381C0E06
S1131AE0070381C0E070381C0E070381C0E0703723
S1131AF03BF8F800001C003E000700038001C00012
S1131B00E000700038001C3F8E0F0706038601C4F6
S1131B1000E4007E003F801DC00E70071C038F018F
S1131B20C3C0E0F0F83CFE7F80001C7C1C1C1C1C25
S1131B301C1C1C1C1C1C1C1C1C1C1C1C1C1C1C1CE1
S1131B403CFF38F07C3EFE7F83E3F0E0E0701C381D
S1131B501C070E0701C381C070E0701C381C070EFF
S1131B600701C381C070E0701C381C070E0701C355
S1131B7081E073F9FC7F38F0FBF83E3C381C381CDC
S1131B80381C381C381C381C381C381C381C381CB1
S1131B90381C783CFE7F07E01FF83C7C783E701EC2
S1131BA0F00FF00FF00FF00FF00FF80F780E7C1C11
S1131BB03E3C0FF007C018F0FBFC3E1E380E380FF9
S1131BC0380738073807380738073806380E380C0E
S1131BD03E1C3BF839E03800380038003800380043
S1131BE038007C00FF0007C41FEC3C3C701C701CD8
S1131BF0601CE01CE01CE01CE01CE01CF01C701CE1
S1131C00783C3FDC1F1C001C001C001C001C001C3A
S1131C10001C003E00FF19FF7CF39C0380700E0142
S1131C20C0380700E01C0380701F07F03E587C0F8B
S1131C3003C07C0780F81F81F81E03C0F03E1A7CA5
S1131C40103070FEFE707070707070707070707014
S1131C50797E3CF87C383C381C381C381C381C38DD
S1131C601C381C381C381C381C381C381C3C7C1F85
S1131C70DF0F18FE1F7C0638041C041C0C0E080E13
S1131C801807100710072003A003E001C001C000DB
S1131C90800080FC7F1F783C06381C04381C041C20
S1131CA01C0C1C0E081C1E180E17100E37100723D0
S1131CB0300763A00743E003C1C00381C0018080F3
S1131CC00100807F7E1E0C078C01C40076003E005C
S1131CD00E00038003E00170011C018F01838080EA
S1131CE0E0C079F0FFFE0F7C0638061C041C0C0EC5
S1131CF00C0E080F180710079003B003A001E001B1
S1131D00E000C000C0008000800180010003007E6C
S1131D10007C0078007FF9FFE607103800E0070038
S1131D203801E007003801E00701380DC03FFFBF6C
S1131D30FE070E1C181818181818181818183060F0
S1131D406010181818181818181818181C0E07FFFF
S1131D50FFFFFFFFFFE0703818181818181818183C
S1131D601818080606081818181818181818181833
S1131D703870E03E007F87E3FE007C0C1020600793
S1131D80000000000000000000000000000000004F
S1131D900000000000000000080000000000007CBB
S1131DA000FF33FF33FF337C00000000000000001D
S1131DB00009000000003C003C003C0000003C0026
S1131DC03C003C000000000000000C0002101E90CB
S1131DD01FF01FFE037E1E9E1FF01FFE037E021EC9
S1131DE00010000A00007804FC0CFC0CFF3FFF3FCD
S1131DF0FF3FCC0FCC0F8807000000000C003038E8
S1131E0038383C381E380F8007C003E039F0387882
S1131E10383C381C000B0000001FB83FFC3FFE316B
S1131E20E637FE3F3E1E1C3E00360022000007003F
S1131E30000000000027003F003F001F00000000DA
S1131E40000000000000000900000000F003FC0F87
S1131E50FE1FFF3F073801200120000000000000A2
S1131E600900000000012001200738FF3FFE1FFC8D
S1131E700FF0030000000000000A0000980CB80EE8
S1131E80F80FF80FF80FF80FF80FB80E980C0000C1
S1131E9000000A0000800180018001F00FF00FF0C3
S1131EA00F80018001800100000000070000000095
S1131EB0000000B800F800F80078000000000000FE
S1131EC0000000000A000080018001800180018080
S1131ED001800180018001800100000000070000F2
S1131EE0000000000038003800380038000000000E
S1131EF00000000000000C0018001C001E000F80F1
S1131F0007C003E001F00078003C001E000E000C46
S1131F10F807FE1FFE1F073F8333C331E3307330DE
S1131F203F38FE1FFE1FF8070B000000000C300CAA
S1131F30300E30FF3FFF3FFF3F00300030003000E5
S1131F40000C1C301E381F3C073E033F8337C3334D
S1131F50E331F7307F303E301C300C0C0C0E1C0F7C
S1131F603CC738C330C330C330C330E739FF3F7E8A
S1131F701F3C0E0CC003E003F00378033C031E0374
S1131F800F03FF3FFF3FFF3F000300030C3F0C7FA5
S1131F901C7F3C63386330633063306330E338E381
S1131FA03FC31F830F0CC00FF01FF83FFC39DE3016
S1131FB0CF30C730C330C339C33F801F000F0C0379
S1131FC000030003000330033C033FC30FF303FF8C
S1131FD0003F000F0003000C000FBC1FFE3FFF3941
S1131FE0E730C330C330E730FF39FE3FBC1F000F7A
S1131FF00C3C007E00FF30E730C330C338C33CC321
S11320001EE70FFF07FE03FC0007000000000000AE
S1132010701C701C701C701C00000000000000008C
S1132020000007000000000000709C70FC70FC7051
S11320307C000000000000000000000A0000C00056
S1132040E001F003F8073C0F1E1E0F3C0738033075
S1132050000000000B000060066006600660066079
S1132060066006600660066006600600000A00005E
S1132070033007380F3C1E1E3C0FF807F003E00145
S1132080C000000000000B1C001E001F000700839E
S113209037C337E337F7007F003E001C0000000C15
S11320A0F80FFE1FFF1FF73BFB37FB37FB37FB37F0
S11320B0FF37FF37FE03F8010B0038003FE03FFC19
S11320C007FF061F06FF06FC07E03F003F0038003D
S11320D0000BFF3FFF3FFF3FC330C330C330E73047
S11320E0FF39FE3FBC1F000F00000BF003FC0FFE86
S11320F01F0F3C07380330033007380F3C0E1C0C0D
S11321000C00000BFF3FFF3FFF3F03300330033061
S113211007380F3CFE1FFC0FF00300000BFF3FFFCE
S11321203FFF3FC330C330C330C330C330C3300379
S113213030033000000BFF3FFF3FFF3FC300C300ED
S1132140C300C300C300C3000300030000000BF07E
S113215003FC0FFE1F0F3C0738C330C330C330C726
S11321603FC73FC63F00000BFF3FFF3FFF3FC0009C
S1132170C000C000C000C000FF3FFF3FFF3F0000A1
S1132180090000000003300330FF3FFF3FFF3F031F
S11321903003300000000000000B000E001E003E63
S11321A000380030003000300038FF3FFF1FFF07C9
S11321B000000BFF3FFF3FFF3FE001F003F8073C47
S11321C00F1E1E0F3C0738033000000BFF3FFF3F7C
S11321D0FF3F00300030003000300030003000306D
S11321E0003000000BFF3FFF3FFF3F7E00F801E09F
S11321F001F8017E00FF3FFF3FFF3F00000BFF3F60
S1132200FF3FFF3F3E00F800F003C007001FFF3F01
S1132210FF3FFF3F00000BF003FC0FFE1F0F3C07C6
S113222038033007380F3CFE1FFC0FF00300000B8F
S1132230FF3FFF3FFF3F8301830183018301C70108
S1132240FF01FE007C0000000BF003FC0FFE1F0FDB
S11322503C07380336073E0F3EFE3FFC3FF0330099
S1132260000BFF3FFF3FFF3F830183038307830F7F
S1132270C71FFF3DFE387C3000000B3C0C7E1CFF6A
S11322803CE738C330C330C330C739CF3F8E1F0C4F
S11322900F00000A0000030003000300FF3FFF3F9C
S11322A0FF3F030003000300000000000BFF07FFD3
S11322B01FFF3F00380030003000300038FF3FFF80
S11322C01FFF0700000B07003F00FF01F80FC03F8E
S11322D0003EC03FF80FFF013F00070000000BFF66
S11322E03FFF3FFF3F001E800780038007001EFF63
S11322F03FFF3FFF3F00000B03300F3C1F3E3C0FEE
S1132300F003E001F0033C0F1F3E0F3C03300000DC
S11323100B03000F003F00FC00F03FC03FF03FFC08
S1132320003F000F00030000000B0330033C033E9A
S1132330033FC333E331F3303F301F300F300330FA
S113234000000900000000FF3FFF3FFF3F03300390
S113235030033003300000000000000C0E001E00AB
S11323603C007800F000E001C0038007000F001E6D
S1132370001C001809000000000330033003300380
S113238030FF3FFF3FFF3F0000000000000C6000F3
S1132390700078003C001E000F000F001E003C007F
S11323A07800700060000C00C000C000C000C000D5
S11323B0C000C000C000C000C000C000C000C00811
S11323C000000000000000003E007E007E004E0081
S11323D000000000000000000B001C403E603F6055
S11323E0336033603360336033E03FE03FC03F002D
S11323F0000BFF3FFF3FFF3FE03060306030603054
S1132400E038E03FC01F800F00000B800FC01FE0CA
S11324103FE0386030603060306030E038C01880B1
S11324200800000B800FC01FE03FE03860306030D0
S1132430E030E030FF3FFF3FFF3F00000B800FC064
S11324401FE03FE03B6033603360336033E033C010
S1132450138001000009C000C000FC3FFE3FFF3FA5
S1132460C700C300C30003000000000000000B808D
S113247003C0C7E0CFE0CE60CC60CC60CC60EEE0BF
S1132480FFE07FE03F00000AFF3FFF3FFF3FE00027
S113249060006000E000E03FC03F803F00000000BB
S11324A0090000000000306030EC3FEC3FEC3F00DE
S11324B0300030000000000000090000000000604F
S11324C000E000E060C0ECFFECFFEC7F00000000E7
S11324D000000A0000FF3FFF3FFF3F8007C00FE0FE
S11324E01FE03C60380030000000000900000000DC
S11324F000300330FF3FFF3FFF3F0030003000005B
S1132500000000000BE03FE03FE03FE000E03FC0A0
S11325103FE03FE000E03FC03F803F00000B000091
S1132520E03FE03FE03F600060006000E000E03F2B
S1132530C03F803F00000B800FC01FE03FE03860C9
S11325403060306030E038E03FC01F800F00000B87
S1132550E0FFE0FFE0FF601C601860186018E01CFA
S1132560E01FC00F800700000B8007C00FE01FE0D2
S11325701C601860186018601CE0FFE0FFE0FF00BA
S1132580000B0000E03FE03FE03FE000600060003F
S11325906000E000E000C000000009C011E033E08A
S11325A033603360336033603F603F401E0000009F
S11325B00000000960006000FE1FFE3FFE3F603027
S11325C06030603000300000000000000BE00FE0DD
S11325D01FE03F00380030003000300038E03FE0BA
S11325E03FE03F00000B6000E001E007801F003E79
S11325F00038003E801FE007E001600000000BE0AF
S113260007E01FE03F003CE01FE00FE01F003CE05C
S11326103FE01FE00700000A6030E038E03DC01FE3
S1132620800F800FC01FE03DE038603000000000E4
S11326300A00006000E081E0E780FF007E801FE088
S113264007E0016000000000000A60306038603C70
S1132650603E6037E033E031E0306030203000002D
S113266000000A00008000C001FC1FFE3F7F7F07BE
S113267070036003600360000000000700000000B6
S113268000000000FF3FFF3FFF3F0000000000008C
S1132690000000000A000003600360036007707F0D
S11326A07FFE3FFC1FC0018000000000000B1000F3
S11326B018001C000C000C001C00180018001C0062
S11326C00C00040000000B000F800FC00FE00C7022
S11326D00C300C700CE00CC00F800F000F000000D9
S11326E000000800020100000304070000000000CD
S11326F000000001020408102040800102040810B8
S11327002001020408102004040404040404040244
S11327100202020202030303030303000000002574
S11327200028002B0000000000240027002A0000DD
S11327305D17EF1A202E791711241FBECFEFD8E0B2
S1132740DEBFCDBF12E0A0E0B1E0E2EDF6E702C0EB
S113275005900D92A433B107D9F724E0A4E3B2E0C5
S113276001C01D92A03FB207E1F713E1CBE9D3E129
S113277004C02197FE010E94F533C839D107C9F777
S11327800E941D1B0C945C3B0C940000CF92DF92C2
S1132790EF92FF920F931F93CF93DF93CDB7DEB7E2
S11327A02C970FB6F894DEBF0FBECDBF26E040E8ED
S11327B055E260E070E088E793E00E94251A8EE11C
S11327C093E00E94A82663E08EE193E00E943A23FE
S11327D061E08EE193E00E942B2361E871E0CE0179
S11327E007960E945C1EEE24EA94FE2C00EB10E097
S11327F02BED30E040E050E060E070E08EE193E0EB
S11328000E9434266EED71E08EE193E00E94D52B98
S11328106EE171E0CE0107960E94DA1EBE01695F87
S11328207F4FCE0101960E94C51E0BEE18EF9E014C
S11328302F5F3F4F4AE550E064E170E08EE193E0A2
S11328400E94792CCE0101960E94EB1D63E271E097
S1132850CE0107960E94DA1EBE01695F7F4FCE014A
S113286001960E94C51E00E010E09E012F5F3F4FBD
S11328704AE550E064E670E08EE193E00E94792C32
S1132880CE0101960E94EB1D68E873E180E090E0C0
S11328900E94321D8EE193E00E947A260CE810E03B
S11328A02EEB30E044E650E06EE170E08EE193E020
S11328B00E94E8290DE810E02FEB30E043E650E0F9
S11328C06DE170E08EE193E00E94E8290EE810E0EB
S11328D020EC30E042E650E06CE170E08EE193E001
S11328E00E94E8290FE810E021EC30E041E650E0D6
S11328F06BE170E08EE193E00E94E8290BE910E0BF
S11329002EE130E04CE850E06EE170E08EE193E0BF
S11329100E94372906E910E022E330E04CE850E059
S113292062E370E08EE193E00E94372926E430E010
S11329304CE850E066E470E08EE193E00E943729B1
S11329402AE530E04CE850E06AE570E08EE193E07F
S11329500E9437290BE910E02EE630E04CE850E005
S11329606EE670E08EE193E00E94372906E910E0FC
S113297022E830E04CE850E062E870E08EE193E059
S11329800E94372926E930E04CE850E066E970E01F
S11329908EE193E00E9437292AEA30E04CE850E0C7
S11329A06AEA70E08EE193E00E9437290BE910E0B7
S11329B02EEB30E04CE850E06EEB70E08EE193E0FB
S11329C00E9437296DEA7BE08EE193E00E94D52BCB
S11329D040E06BE77DE18EE193E00E9416246EE215
S11329E071E0CE0107960E94DA1EBE01695F7F4F37
S11329F0CE0101960E94C51E0FEF1FEF9E012F5FAF
S1132A003F4F46E450E06EE170E08EE193E00E94B7
S1132A10792CCE0101960E94EB1D6EED71E08EE1E2
S1132A2093E00E94D52B64E371E0CE0107960E94E7
S1132A30DA1EBE01695F7F4FCE0101960E94C51E5A
S1132A409E012F5F3F4F41E450E062E870E08EE169
S1132A5093E00E94792CCE0101960E94EB1D6DEA51
S1132A607BE08EE193E00E94D52BCC24CA94DC2C2D
S1132A7024E1E22EF12C0EE110E02EE831E04AE0F0
S1132A8050E06AEA70E08EE193E00E94B72B84E3A1
S1132A9092E00E94D82197FF07C068E371E088E7BD
S1132AA093E00E94781BFFCFCE0107960E94EB1D96
S1132AB02C960FB6F894DEBF0FBECDBFDF91CF9139
S1132AC01F910F91FF90EF90DF90CF900895EF92B8
S1132AD0FF920F931F937B016EE170E00E94A0337D
S1132AE09B012D5D3F4F07E810E049E650E063E2AB
S1132AF070E08EE193E00E9434261F910F91FF90C5
S1132B00EF9008954F925F926F927F92AF92BF922F
S1132B10CF92DF92EF92FF920F931F93CF93DF93A5
S1132B2000D000D000D0CDB7DEB784E392E00E949D
S1132B301D2284E392E00E94E8206B017C0120E0E6
S1132B4035E84FEC59E40E94201987FF09C0C09270
S1132B507403D0927503E0927603F092770308C071
S1132B6010927403109275031092760310927703F7
S1132B7020E030E04AE754E46091740370917503F7
S1132B8080917603909177030E94EA176B017C0190
S1132B9008EC10E0412C512C3201A7019601C3012D
S1132BA0B2010E947E172B013C0161E070E080E0DD
S1132BB090E00E94321D0150110979F720E030E0C5
S1132BC048E453E4C301B2010E94EA172B013C011B
S1132BD066E771E088E793E00E946B1B24E030E035
S1132BE0B301A20188E793E00E94C11C62E871E08E
S1132BF088E793E00E946B1B69E971E088E793E042
S1132C000E946B1BC301B2010E945C181F921F92A9
S1132C1021E12F9324E92F93A12CB12C650114E613
S1132C20E12EF12C00E010E020E030E0A9010E9448
S1132C30A91D709369036093680340926C035092DA
S1132C406D0360926E0370926F0320E030E04AE7F8
S1132C5054E4C301B2010E94EA17AB01BC0123E0B2
S1132C60CE0101960E94F11EBE016F5F7F4F82E686
S1132C7093E00E94CE1ECE0101960E94EB1D40906F
S1132C806C0350906D0360906E0370906F03C0905E
S1132C907003D0907103E0907203F0907303A70166
S1132CA09601C301B2010E947D170F900F900F90FF
S1132CB00F9020E030E040E85FE30E9420191816EE
S1132CC074F0A3019201C701B6010E947D1720E0B0
S1132CD030E040E85FE30E94201918162CF5E12C3F
S1132CE0F12C00E510E028E730E048E250E06EE126
S1132CF070E08EE193E00E94342662E673E0CE0138
S1132D0001960E94C51E0FEF1FEF9E012F5F3F4FDC
S1132D1046E450E06EE170E08EE193E00E94792C8D
S1132D20CE0101960E94EB1DC0906C03D0906D0300
S1132D30E0906E03F0906F03409070035090710325
S1132D406090720370907303A3019201C701B601EE
S1132D500E947D1720E030E040E85FE30E942019E4
S1132D601816B4F48091680390916903843823E0C1
S1132D70920708F465C09C01245833402C383A402B
S1132D8008F467C080312EE092070CF469C064C077
S1132D90A7019601C301B2010E947D1720E030E033
S1132DA040E85FE30E94201918160CF071C080916E
S1132DB06A0390916B030EE110E0B8010E94A03306
S1132DC0072E000C880B990B0E94941820E030E029
S1132DD04CE052E40E947E170E9463182B013C01D0
S1132DE08091680390916903B8010E94A033072E73
S1132DF0000C880B990B0E94941820E030E04CE002
S1132E0052E40E947E170E946318E12CF12C07E81B
S1132E1010E0920149E650E08EE193E00E943426EE
S1132E208091680390916903823391051CF460E0FA
S1132E3070E014C09C01225331092235334018F448
S1132E4060EA7EEF0BC09C01245833402C383A4092
S1132E5018F460EE77E002C060E078EF0E94671536
S1132E6080916C0390916D03A0916E03B0916F03F8
S1132E708093700390937103A0937203B0937303D0
S1132E80809168039091690390936B0380936A0324
S1132E9026960FB6F894DEBF0FBECDBFDF91CF915B
S1132EA01F910F91FF90EF90DF90CF90BF90AF9064
S1132EB07F906F905F904F900895EF920F9361E829
S1132EC071E082E693E00E945C1E88ECE82E03E049
S1132ED02AE049E068E08EE193E00E94C1222FE0FD
S1132EE040E16EE174E084E392E00F91EF900C9482
S1132EF0341F82E693E00C94EB1D5058BB27AA279D
S1132F000E9495170C94E6180E94D81838F00E9475
S1132F10DF1820F039F49F3F19F426F40C94D518E7
S1132F200EF4E095E7FB0C94CF18E92F0E94F718F4
S1132F3058F3BA17620773078407950720F079F4EA
S1132F40A6F50C9419190EF4E0950B2EBA2FA02DAA
S1132F500B01B90190010C01CA01A0011124FF2742
S1132F60591B99F0593F50F4503E68F11A16F0403D
S1132F70A22F232F342F4427585FF3CF469537953C
S1132F802795A795F0405395C9F77EF41F16BA0B01
S1132F90620B730B840BBAF09150A1F0FF0FBB1FAF
S1132FA0661F771F881FC2F70EC0BA0F621F731FF8
S1132FB0841F48F4879577956795B795F7959E3F55
S1132FC008F0B0CF9395880F08F09927EE0F9795E6
S1132FD0879508950E94FE170C94E6180E94DF1846
S1132FE058F00E94D81840F029F45F3F29F00C945F
S1132FF0CF1851110C941A190C94D5180E94F71873
S113300068F39923B1F3552391F3951B550BBB2713
S1133010AA2762177307840738F09F5F5F4F220F58
S1133020331F441FAA1FA9F335D00E2E3AF0E0E84F
S113303032D091505040E695001CCAF72BD0FE2F99
S113304029D0660F771F881FBB1F2617370748072D
S1133050AB07B0E809F0BB0B802DBF01FF279358E5
S11330605F4F3AF09E3F510578F00C94CF180C94C2
S11330701A195F3FE4F3983ED4F3869577956795E4
S1133080B795F7959F5FC9F7880F911D969587951A
S113309097F90895E1E0660F771F881FBB1F621739
S11330A073078407BA0720F0621B730B840BBA0BF7
S11330B0EE1F88F7E09508950E9463186894B11193
S11330C00C941A1908950E94FF1888F09F5798F0DD
S11330D0B92F9927B751B0F0E1F0660F771F881F19
S11330E0991F1AF0BA95C9F714C0B13091F00E9433
S11330F01919B1E008950C941919672F782F8827AE
S1133100B85F39F0B93FCCF3869577956795B39559
S1133110D9F73EF490958095709561957F4F8F4FC8
S11331209F4F0895E89409C097FB3EF490958095CD
S1133130709561957F4F8F4F9F4F9923A9F0F92F79
S113314096E9BB279395F695879577956795B795F7
S1133150F111F8CFFAF4BB0F11F460FF1BC06F5FDD
S11331607F4F8F4F9F4F16C0882311F096E911C0EF
S1133170772321F09EE8872F762F05C0662371F010
S113318096E8862F70E060E02AF09A95660F771F24
S1133190881FDAF7880F9695879597F9089597F918
S11331A09F6780E870E060E008959FEF80EC0895E9
S11331B000240A9416161706180609060895002412
S11331C00A9412161306140605060895092E03948C
S11331D0000C11F4882352F0BB0F40F4BF2B11F400
S11331E060FF04C06F5F7F4F8F4F9F4F089557FD5F
S11331F09058440F551F59F05F3F71F04795880F61
S113320097FB991F61F09F3F79F0879508951216F7
S113321013061406551FF2CF4695F1DF08C01616A3
S113322017061806991FF1CF869571056105089454
S11332300895E894BB2766277727CB0197F908956B
S11332400E94251908F48FEF0895990F0008550F6F
S1133250AA0BE0E8FEEF16161706E807F907C0F018
S113326012161306E407F50798F0621B730B840B20
S1133270950B39F40A2661F0232B242B252B21F4FA
S113328008950A2609F4A140A6958FEF811D811D9A
S11332900895FC01918D228D892F90E0805C9F4FD1
S11332A0821B91098F7399270895FC01918D828D5A
S11332B0981731F0828DE80FF11D858D90E0089507
S11332C08FEF9FEF0895FC01918D828D981761F027
S11332D0828DDF01A80FB11D5D968C91928D9F5F49
S11332E09F73928F90E008958FEF9FEF0895FC01F4
S11332F0538D448D252F30E0842F90E0821B930B57
S1133300541710F0CF9608950197089585EE9AE129
S1133310892B49F080E090E0892B29F00E94E51A7E
S113332081110C9400000895FC01848DDF01A80F25
S1133330B11DA35ABF4F2C91848D90E001968F73D9
S11333409927848FA689B7892C93A089B1898C91F8
S1133350837080648C93938D848D981306C0028847
S1133360F389E02D80818F7D80830895EF92FF9211
S11333700F931F93CF93DF93EC0181E0888F9B8D94
S11333808C8D981305C0E889F989808185FD26C054
S1133390F62E0B8D10E00F5F1F4F0F731127E02ED9
S11333A08C8DE8120CC00FB607FCFACFE889F989B6
S11333B0808185FFF5CFCE010E949419F1CF8B8DCA
S11333C0FE01E80FF11DE35AFF4FF0829FB7F89416
S11333D00B8FEA89FB89808180620AC09FB7F894C9
S11333E0EE89FF896083E889F9898081837080642C
S11333F080839FBF81E090E0DF91CF911F910F9177
S1133400FF90EF900895CF93DF93EC01888D88238C
S1133410C9F0EA89FB89808185FD05C0A889B9893D
S11334208C9186FD0FC00FB607FCF5CF808185FF18
S1133430F2CFA889B9898C9185FFEDCFCE010E9486
S11334409419E7CFDF91CF910895CF92DF92EF9255
S1133450FF921F93CF93DF93EC016A017B01122F3C
S1133460E889F98982E080834115514E610571052F
S1133470B1F060E079E08DE390E0A70196010E944D
S1133480B433DA01C9010197A109B109B695A79529
S1133490979587959C01211580E13807A8F0E88964
S11334A0F989108260E874E88EE190E0A701960142
S11334B00E94B433DA01C9010197A109B109B69593
S11334C0A795979587959C01EC85FD853083EE85BE
S11334D0FF852083188EEC89FD891083EA89FB8996
S11334E0808180618083EA89FB8980818860808310
S11334F0EA89FB89808180688083EA89FB898081ED
S11335008F7D8083DF91CF911F91FF90EF90DF90AB
S1133510CF90089580E090E008951F920F920FB627
S11335200F9211242F938F939F93EF93FF93E09126
S11335308803F09189038081E0918E03F0918F03D9
S113354082FD12C09081809191038F5F8F732091CF
S11335509203821751F0E0919103F0E0E858FC4F98
S1133560958F8093910301C08081FF91EF919F918A
S11335708F912F910F900FBE0F901F9018951F924F
S11335800F920FB60F9211242F933F934F935F9393
S11335906F937F938F939F93AF93BF93EF93FF9317
S11335A088E793E00E949419FF91EF91BF91AF9146
S11335B09F918F917F916F915F914F913F912F9147
S11335C00F900FBE0F901F90189588E793E00E940C
S11335D0491921E0892B09F420E0822F0895E8E7B6
S11335E0F3E01382128288EE93E0A0E0B0E08483DB
S11335F09583A683B7838AE891E09183808385ECE1
S113360090E09587848784EC90E09787868780ECA8
S113361090E0918B808B81EC90E0938B828B82EC99
S113362090E0958B848B86EC90E0978B868B118E43
S1133630128E138E148E089508950E946E1D0E949A
S11336401C1B0E94C613C6E8D9E10E94821520976C
S1133650E1F30E948619F9CFCF92DF92EF92FF92A5
S11336600F931F93CF93DF936C017A018B01C0E01A
S1133670D0E0CE15DF0581F0D8016D918D01D60122
S1133680ED91FC910190F081E02DC6010995892B03
S113369011F02196EECF7E01C701DF91CF911F91EA
S11336A00F91FF90EF90DF90CF9008956115710511
S11336B079F0FB0101900020E9F73197AF01461B37
S11336C0570BDC01ED91FC910280F381E02D09940C
S11336D080E090E008950C94561BDC01ED91FC9180
S11336E00190F081E02D099468E971E00C94561B77
S11336F00F931F93CF93DF93EC010E94561B8C0111
S1133700CE010E94741B800F911FDF91CF911F91F6
S11337100F9108958F929F92AF92BF92EF92FF9272
S11337200F931F93CF93DF93CDB7DEB7A1970FB657
S1133730F894DEBF0FBECDBF7C01FA01CB0119A204
S1133740223008F42AE08E010F5D1F4F822E912C47
S1133750A12CB12CBF01A50194010E94B433F9013D
S1133760CA01015011096A3010F4605D01C0695C3E
S1133770D8016C93232B242B252B61F7B801C701A7
S11337800E94561BA1960FB6F894DEBF0FBECDBFA4
S1133790DF91CF911F910F91FF90EF90BF90AF9069
S11337A09F908F9008952115310541F4DC01ED912E
S11337B0FC910190F081E02D642F09940C948A1BF4
S11337C09A01AB0160E070E00C94D31B7F928F925E
S11337D09F92AF92BF92CF92DF92EF92FF920F939C
S11337E01F93CF93DF938C016A017B01722E9A01A0
S11337F0AB01C701B6010E948B33882319F06BE932
S113380071E027C046015701E894B7F82FEF3FEF66
S11338104FE75FE7C501B4010E948B3381110DC0EE
S11338202FEF3FEF4FE75FE7C501B4010E94193363
S113383018161CF46FE971E00CC02FEF3FEF4FE74F
S11338405FE4C701B6010E942019181694F463EAD4
S113385071E0C801DF91CF911F910F91FF90EF901C
S1133860DF90CF90BF90AF909F908F907F900C94FB
S1133870561B2FEF3FEF4FE75FECC701B6010E94E5
S1133880193387FDE4CF20E030E0A901C701B60178
S11338900E94193387FF0AC06DE2C8010E946D1BA4
S11338A0EC01F7FAF094F7F8F09402C0C0E0D0E02D
S11338B0B12C60E070E080E09FE37B1441F020E0F5
S11338C030E040E251E40E94EA17B394F6CFA70136
S11338D096010E947E176B017C010E9463184B01C4
S11338E05C012AE0AB01BC01C8010E948A1BC80F1D
S11338F0D91F7720B9F1C501B4010E9492189B0128
S1133900AC01C701B6010E947D176B017C016EE218
S1133910C8010E946D1BC80FD91F20E030E040E2AF
S113392051E4C701B6010E941E334B015C010E94A1
S113393063186B017C014AE050E0C8010E94E01B5F
S1133940C80FD91FB60180E090E00E9492189B0135
S1133950AC01C501B4010E947D176B017C017A940E
S11339607110DBCFCE01DF91CF911F910F91FF90AA
S1133970EF90DF90CF90BF90AF909F908F907F900B
S113398008950C94E61B1F920F920FB60F92112408
S11339902F933F938F939F93AF93BF93809116047C
S11339A090911704A0911804B09119043091150452
S11339B023E0230F2D3720F40196A11DB11D05C06E
S11339C026E8230F0296A11DB11D209315048093B0
S11339D0160490931704A0931804B09319048091CB
S11339E01A0490911B04A0911C04B0911D0401962B
S11339F0A11DB11D80931A0490931B04A0931C0471
S1133A00B0931D04BF91AF919F918F913F912F91DE
S1133A100F900FBE0F901F9018953FB7F8948091A8
S1133A201A0490911B04A0911C04B0911D0426B5A6
S1133A30A89B05C02F3F19F00196A11DB11D3FBFE2
S1133A40BA2FA92F982F8827820F911DA11DB11D70
S1133A50BC01CD0142E0660F771F881F991F4A956C
S1133A60D1F708958F929F92AF92BF92CF92DF9237
S1133A70EF92FF926B017C010E940D1D4B015C01D2
S1133A80C114D104E104F10401F10E94242E0E9426
S1133A900D1DDC01CB0188199909AA09BB09883ECF
S1133AA09340A105B10560F321E0C21AD108E108F1
S1133AB0F10888EE880E83E0981EA11CB11CC11485
S1133AC0D104E104F10419F7DBCFFF90EF90DF900C
S1133AD0CF90BF90AF909F908F900895789484B5C5
S1133AE0826084BD84B5816084BD85B5826085BDF6
S1133AF085B5816085BDEEE6F0E0808181608083DC
S1133B00E1E8F0E0108280818260808380818160BE
S1133B108083E0E8F0E0808181608083E1EBF0E085
S1133B20808184608083E0EBF0E080818160808329
S1133B30EAE7F0E080818460808380818260808312
S1133B408081816080838081806880831092C1003D
S1133B5008954F925F926F927F92AF92BF92CF92ED
S1133B60DF92EF92FF920F931F93CF93DF93CDB722
S1133B70DEB729013A019B01AC0124193509460934
S1133B80570989899A89AB89BC89BC01CD016A1915
S1133B907B098C099D090E949033A801970124197F
S1133BA03509460957090E94D633CA01B9016A0D7D
S1133BB07B1D8C1D9D1DDF91CF911F910F91FF9057
S1133BC0EF90DF90CF90BF90AF907F906F905F9019
S1133BD04F9008950895FC0180819181009711F020
S1133BE00C94E1340895CF93DF93EC01888199819B
S1133BF0009711F00E94E134198218821D821C8200
S1133C001B821A82DF91CF9108950F931F93CF9354
S1133C10DF93EC018B016F5F7F4F888199810E9454
S1133C206A35009731F0998388831B830A8381E086
S1133C3001C080E0DF91CF911F910F910895CF9340
S1133C40DF93EC0188819981892B29F08A819B81FA
S1133C508617970760F4CE010E94051E882341F061
S1133C608C819D81892B19F4E881F981108281E08E
S1133C70DF91CF910895EF92FF920F931F93CF930B
S1133C80DF93EC017B018A01BA010E941F1E81119E
S1133C9004C0CE010E94F31D07C01D830C83B7012D
S1133CA0888199810E943936CE01DF91CF911F918D
S1133CB00F91FF90EF900895FC01118210821382FE
S1133CC01282158214826115710551F0FB01019075
S1133CD00020E9F73197AF01461B570B0C943B1EAC
S1133CE008950F931F93CF93DF938C01EB01FC0195
S1133CF0808191810097D1F0688179816115710586
S1133D0099F02AEE3DE1232B79F0428153812C81F5
S1133D103D814217530740F00E9439368C819D81C2
S1133D20F8019583848313C00E94E13488819981CA
S1133D30F801918380838A819B81938382838C8120
S1133D409D8195838483198218821B821A821D8225
S1133D501C82DF91CF911F910F910895CF93DF9330
S1133D60EC01FB018617970761F060817181611591
S1133D70710529F0448155810E943B1E02C00E94B6
S1133D80F31DCE01DF91CF910895FC0111821082C1
S1133D9013821282158214820C94AE1ECF93DF9389
S1133DA0EC018617970711F00E94711ECE01DF9176
S1133DB0CF910895CF93DF93EC016115710559F00C
S1133DC0FB0101900020E9F73197AF01461B570B27
S1133DD00E943B1E02C00E94F31DCE01DF91CF91D1
S1133DE00895EF92FF920F931F93CF93DF93CDB774
S1133DF0DEB7A1970FB6F894DEBF0FBECDBF7C012E
S1133E00CB01BA01F701118210821382128215824A
S1133E10148242E0420F8E010F5F1F4F0E9429342B
S1133E20BC01C7010E94DA1EA1960FB6F894DEBF4A
S1133E300FBECDBFDF91CF911F910F91FF90EF90F7
S1133E400895FC01248135816217730748F4808149
S1133E509181009729F0FC01E60FF71F80810895F6
S1133E6080E008950C94211F4F925F926F927F928D
S1133E708F929F92AF92BF92CF92DF92EF92FF9276
S1133E800F931F93CF93DF93FC015B01942E822E3B
S1133E908AE090E0938B828B80E89AE1A6E0B0E020
S1133EA082A393A3A4A3B5A380E196E7A7EDB5E409
S1133EB086A397A3A0A7B1A72DEC3CE033A722A724
S1133EC083E393E795A784A737A726A791AB80AB95
S1133ED080E090E0A8ECB1EC82AB93ABA4ABB5ABC3
S1133EE080E090E0AAEAB2E486AB97ABA0AFB1AFB2
S1133EF012AE13AE14AE15AEDF01DE964AE959E9EF
S1133F0069E97DE34D935D936D937C9313971496C8
S1133F101D921D921D921C921397EF01CA5BDF4FF5
S1133F208AE999E9A9E1BEE388839983AA83BB83DB
S1133F3024960AE919E929E93DEB088319832A83C0
S1133F403B832496488359836A837B8324964AE976
S1133F5059E969E17EEB488359836A837B8324961C
S1133F6088839983AA83BB83DF01A65ABF4F1D921E
S1133F701D921D921C92139714960AE919E929E9D6
S1133F803EE30D931D932D933C93139714961D922A
S1133F901D921D921C92139714964DEC5CEC6CE4EC
S1133FA07FE34D935D936D937C93139714961D92C9
S1133FB01D921D921C921397689680E090E0A0ECED
S1133FC0BFE388839983AA83BB8324960F2EFAE9DF
S1133FD0CF2EF9E9DF2EED2CFEEBFF2EF02DC8825B
S1133FE0D982EA82FB822496088319832A833B833D
S1133FF024960DEC1CEC2CE43FEB088319832A83F4
S11340003B832496488359836A837B83249640E0C8
S113401050E060EC7FEB488359836A837B8324966A
S113402088839983AA83BB83DF01A657BF4F1D9260
S11340301D921D921C921397149600E010E020E448
S113404030E40D931D932D933C93139714961D9276
S11340501D921D921C921397149640E050E060EA62
S113406070E44D935D936D937C93139714961D9216
S11340701D921D921C921397689680E090E0A0E731
S1134080B1E488839983AA83BB8324961882198216
S11340901A821B8224960F2EC12CD12CF0EFEF2E06
S11340A0F1E4FF2EF02DC882D982EA82FB822496A5
S11340B0188219821A821B8224960F2E412C512CAD
S11340C0F0E76F2EF2E47F2EF02D488259826A8247
S11340D07B822496188219821A821B8224960F2EC0
S11340E0412C512CF8EC6F2EF2E47F2EF02D4882F7
S11340F059826A827B8224960F2E412C512CF0E443
S11341006F2EF0EC7F2EF02D488259826A827B82DA
S11341102496088319832A833B83249600E010E0C5
S113412020EA30EC088319832A833B83249648834E
S113413059836A837B83249640E050E060E771EC06
S1134140488359836A837B83249688839983AA83CB
S1134150BB83249640E050E060E371E448835983D4
S11341606A837B83249640E050E06CE871E44883E2
S113417059836A837B832496188219821A821B824C
S1134180249688839983AA83BB83DF01AE51BF4FF2
S11341901D921D921D921C9213971496CD92DD923E
S11341A0ED92FC921397B186A08692868386DF9166
S11341B0CF911F910F91FF90EF90DF90CF90BF9020
S11341C0AF909F908F907F906F905F904F900895E5
S11341D0FC0160817181828193810895DC011B96C9
S11341E0EC911B974E2F50E04631510508F07CC0EE
S11341F0FA01EC5CFF4F0C94F533DA964D915D9126
S11342006D917C91DD975A964D935D936D937C935C
S11342105D97FC01FE965EC0FC01EE5BFF4F4FC054
S1134220FC01E65BFF4F4BC0FC01EE5AFF4F47C059
S1134230FC01E65AFF4F43C0FC01EE59FF4F3FC05B
S1134240FC01E659FF4F3BC0FC01EE58FF4F37C05D
S1134250FC01E658FF4F33C0FC01EE57FF4F2FC05F
S1134260FC01E657FF4F2BC0FC01EE56FF4F27C061
S1134270FC01E656FF4F23C0FC01EE55FF4F1FC063
S1134280FC01E655FF4F1BC0FC01EE54FF4F17C065
S1134290FC01E654FF4F13C0FC01EE53FF4F0FC067
S11342A0FC01E653FF4F0BC0FC01EE52FF4F07C069
S11342B0FC01E652FF4F03C0FC01EE51FF4F408169
S11342C05181628173815A964D935D936D937C9372
S11342D05D97349640815181628173815E964D93DE
S11342E05D936D937C9391970895EF92FF920F9352
S11342F01F93CF93DF93EC017B018A0144E06A852D
S1134300888599850E941D2E90E0998B888B04974F
S113431009F041C088859985DC01ED91FC91028406
S1134320F385E02D09958C8788859985DC01ED91CD
S1134330FC910284F385E02D09958D878885998504
S1134340DC01ED91FC910284F385E02D09958E87C3
S113435088859985DC01ED91FC910284F385E02D3B
S113436009958F878C858F7790E0982F88272D85E6
S1134370820F911DF701918380838E858F7790E062
S1134380982F88272F85820F911DD8018D939C9398
S113439081E090E002C08FEF9FEF9D8B8C8B8C8926
S11343A09D89DF91CF911F910F91FF90EF90089518
S11343B0CF92DF92EF92FF920F931F93CF93DF93ED
S11343C0EC01888599850E94862D4AA15BA16CA188
S11343D07DA1888599850E94982DCE010E94EE20AA
S11343E000E010E07E0188E1E80EF11C6E0186E138
S11343F0C80ED11C8A899B890817190798F4A7014C
S1134400B601CE010E9475219D8B8C8B181619065E
S11344104CF06AE070E080E090E00E94321D0F5F93
S11344201F4FE8CF8C899D89DF91CF911F910F9108
S1134430FF90EF90DF90CF9008954F925F926F922C
S11344407F928F929F92AF92BF92CF92DF92EF9220
S1134450FF920F931F93CF93DF93EC01AC01485E5F
S11344605F4FBC016A5E7F4F0E9475218C019D8B5A
S11344708C8B6AA47BA4CA8CDB8CEC8CFD8C6E893F
S11344807F896619770980E090E00E9492184B01B9
S11344905C016CA57DA566197709072E000C880BB5
S11344A0990B0E9494182B013C01A70196016E8D73
S11344B07F8D88A199A10E947D179B01AC01C30146
S11344C0B2010E94EA179B01AC01C501B4010E942C
S11344D0EA17A70196010E947E172EA13FA148A5C5
S11344E059A50E941E33688379838A839B836EA4B3
S11344F07FA4CAA8DBA8ECA8FDA8688D798D6619ED
S1134500770980E090E00E9492184B015C0168A951
S113451079A966197709072E000C880B990B0E945C
S113452094182B013C01A70196016EA97FA988ADBF
S113453099AD0E947D179B01AC01C301B2010E9499
S1134540EA179B01AC01C501B4010E94EA17A70157
S113455096010E947E176C837D838E839F83C8019E
S1134560DF91CF911F910F91FF90EF90DF90CF904B
S1134570BF90AF909F908F907F906F905F904F907F
S11345800895EF920F93CF93DF93EC0188E1E6E077
S1134590F1E0DE015C9601900D928A95E1F76E835D
S11345A04F8328878FEF8A8789870B87EB8E81E07B
S11345B08CABFE01FE961082118212821382CE5BB6
S11345C0DF4F19821882DF91CF910F91EF900895F8
S11345D0CF93DF93EC01DB01FA018A8D8230A9F0DD
S11345E0833029F18130A1F58A819B810197208153
S11345F03181821B930B918380832D913C91119780
S11346008D939C933183208323C088819981019762
S11346102D913C911197821B930B8D939C938A81CE
S11346209B81019720813181821B930B0FC088816C
S1134630998101972D913C911197821B930B1196AF
S11346409C938E93208131812D933C93918380831D
S1134650DF91CF910895FC0165AB8385882349F0F0
S1134660662319F0638D70E002C060E070E00C9482
S1134670252E0895FC016370628F623021F063304F
S113468049F0613039F080EB90E0918380838CEDC8
S113469090E006C08CED90E09183808380EB90E005
S11346A0938382830895CF93DF93FC01A089B1891A
S11346B09C91818D809589238C93A489B5899C9143
S11346C0808D809589238C93828587FF11C07EBD60
S11346D00DB407FEFDCF6EBD0DB407FEFDCFA4895A
S11346E0B5899C91808D892B8C93DF91CF9108950E
S11346F020E130E040E050E8A485B5858689EB01EF
S1134700C423D5239C91CD2B11F0892B02C0809515
S113471089238C93A685B7859C918789892B8C9353
S1134720A685B7859C918789809589238C93569516
S113473047952150310901F7D2CFCF93DF93FC0184
S1134740A089B1899C91818D892B8C93A489B58989
S11347509C91808D809589238C93828587FF11C0DD
S11347607EBD0DB407FEFDCF6EBD0DB407FEFDCFBB
S1134770A489B5899C91808D892B8C93DF91CF91ED
S1134780089520E130E040E050E8A485B5858689AD
S1134790EB01C423D5239C91CD2B11F0892B02C0AE
S11347A0809589238C93A685B7859C918789892BCD
S11347B08C93A685B7859C918789809589238C9352
S11347C0569547952150310901F7D2CF0F931F9386
S11347D0CF93DF93EC018A010E945323B801CE01E9
S11347E0DF91CF911F910F910C949D23CF93DF9371
S11347F0EC014FEA50E066E370E00E94E62340E0FB
S113480050E067E370E0CE010E94E6234BED50E0F8
S113481068E370E0CE010E94E62340E050E069E3E3
S113482070E0CE01DF91CF910C94E623DC01D796A2
S11348307C936E93D697FB018491D8968C93D897EA
S113484031968491D9968C93D9973196E491DA96DE
S1134850EC93DA97FB0133966491DB966C93DB97C8
S1134860982F969596959695DC969C93DC97DD9675
S11348704C93DD97E82FE77019F09F5FDC969C93CB
S11348800895CF93DF93FC01EC01EE968881998122
S1134890AA81BB81AC01BD014F5F5F4F6F4F7F4F5A
S11348A0488359836A837B83892B8A2B8B2B29F535
S11348B0828587FF1BC080917604882399F02FB7E7
S11348C0F89480917604813059F48DB38093740404
S11348D09DB380917504809589238DBB2FBF02C041
S11348E02093740480E58CBD81E08DBDA489B589D5
S11348F09C91808D809589238C93DF91CF9108952D
S1134900CF93DF93FC01EC01EE9688819981AA8113
S1134910BB810197A109B10988839983AA83BB83C9
S1134920892B8A2B8B2BC9F4A489B5899C91808D02
S1134930892B8C93828587FF10C08091760488230D
S113494061F09FB7F894209176048091740421302B
S113495019F48DBB9FBF01C08FBFDF91CF91089524
S1134960AF92BF92CF92DF92EF920F931F93CF93A8
S1134970DF93CDB7DEB7C454D1090FB6F894DEBFC8
S11349800FBECDBF6C017EAF6DAF21965FAF4EAF52
S1134990219723963FAF2EAF239725961FAF0EAFD7
S11349A025970E2D10E01F92EF9225968FAD259737
S11349B08F9324968FAD24978F9323968FAD23974F
S11349C08F9322968FAD22978F9321968FAD219747
S11349D08F938FAD8F938EAD8F938DAD8F9387EA29
S11349E091E09F938F939E012F5F3F4F59013F9317
S11349F02F930E944036B50188E793E00E94781B0C
S1134A00F6018081918101972DAD3EAD0FB6F894EA
S1134A10DEBF0FBECDBF8217930708F49C013EAFE3
S1134A202DAF23962EAD3FAD23978217930708F43D
S1134A309C0123963FAF2EAF2397F6018281938189
S1134A40019721962EAD3FAD21978217930708F465
S1134A509C0121963FAF2EAF219725962EAD3FADF9
S1134A6025978217930708F49C0125963FAF2EAF34
S1134A702597AE01415C5F4FBE01635C7F4FC60169
S1134A800E94E822AE014D5B5F4FBE016F5B7F4F1A
S1134A90C6010E94E82223962EAD3FAD23978DAD2B
S1134AA09EAD2817390730F43EAF2DAF23969FAF44
S1134AB08EAF239725962EAD3FAD259721968EADCB
S1134AC09FAD21972817390740F421963FAF2EAFA9
S1134AD0219725969FAF8EAF2597C6010E9441244A
S1134AE0F601828D882351F0960148E0849F200DC1
S1134AF0311D1124F801E20FF31FE4880E2D10E09C
S1134B00A80183E0440F551F8A95E1F7506163E0E3
S1134B1070E0C6010E94E62323964EAD5FAD239755
S1134B2066E370E0C6010E94E6234DAD5EAD67E327
S1134B3070E0C6010E94E62325964EAD5FAD259731
S1134B4068E370E0C6010E94E62321964EAD5FAD96
S1134B50219769E370E0C6010E94E6231F92EF9259
S1134B6025968FAD25978F9324968FAD24978F9399
S1134B7023968FAD23978F9322968FAD22978F9391
S1134B8021968FAD21978F938FAD8F938EAD8F9399
S1134B908DAD8F9387ED91E09F938F93BF92AF92EA
S1134BA00E944036B50188E793E00E94781B0FB657
S1134BB0F894DEBF0FBECDBFC801959587958130AF
S1134BC0910581F03CF4892B59F523964EAD5FADE8
S1134BD023970AC08230910589F0039709F54DADFA
S1134BE05EAD10C04DAD5EAD60E270E0C6010E94E6
S1134BF0E62325964EAD5FAD25970DC023964EADA9
S1134C005FAD239760E270E0C6010E94E62321961F
S1134C104EAD5FAD219761E270E0C6010E94E623CC
S1134C2062E270E0C6010E945323C6010E94802400
S1134C30CC5BDF4F0FB6F894DEBF0FBECDBFDF9164
S1134C40CF911F910F91EF90DF90CF90BF90AF90D5
S1134C500895EF920F931F93E7E0EE2E0E94B02485
S1134C601F910F91EF9008956F927F928F929F9270
S1134C70AF92BF92CF92DF92EF92FF920F931F9366
S1134C80CF93DF935C014B013A01E90168010E9473
S1134C902926C5010E9441248FEFC81AD80AC618D4
S1134CA0D7082196C819D909CC9E4001CD9E900CF5
S1134CB0DC9E900C11248114910441F0B701C501CC
S1134CC00E949D2381E0881A9108F5CFC5010E94B6
S1134CD08024C501DF91CF911F910F91FF90EF9038
S1134CE0DF90CF90BF90AF909F908F907F906F9008
S1134CF00C94F623DF92EF92FF920F931F93CF93BE
S1134D00DF93EC01DA8C60E00E943A230A811B8174
S1134D10015011092881398121503109E12CF12CEC
S1134D2040E050E060E070E0CE010E9434266D2D3A
S1134D30CE010E943A236AE070E080E090E0DF91C7
S1134D40CF911F910F91FF90EF90DF900C94321D43
S1134D50CF93DF93EC018E8118163CF461E00E943E
S1134D60AD2E60E08E810E94E92E8B8518163CF4EE
S1134D7061E00E94AD2E60E0CE010E942B2361E031
S1134D808F810E94AD2E60E08F810E94E92E61E048
S1134D9088850E94AD2E61E088850E94E92E888571
S1134DA0082E000C990BFC01E95FF84DE491F0E04A
S1134DB0EE0FFF1FE55EF84D259134913D8B2C8B52
S1134DC0FC01ED50F94DE491E88F8F81082E000C21
S1134DD0990BFC01E95FF84DE491F0E0EE0FFF1F41
S1134DE0E55EF84D25913491398B288BFC01ED500B
S1134DF0F94DE491E98F8A8587FD49C061E0898591
S1134E000E94AD2E60E089850E94E92E61E08A85CA
S1134E100E94AD2E61E08A850E94E92E8A85082EC3
S1134E20000C990BFC01E95FF84DE491F0E0EE0F02
S1134E30FF1FE55EF84DA591B491BF87AE87FC01D5
S1134E40ED50F94D84918F8B2985022E000C330B84
S1134E50F901E95FF84DE491F0E0EE0FFF1FE55E24
S1134E60F84D459154915D874C87F901ED50F94D0A
S1134E70E491EE8B9C91E82FE095E923EC93EC858B
S1134E80FD8590818E8980958923808306C01F8645
S1134E901E861F8A1D861C861E8A8A8587FD0E949F
S1134EA0182F8E811816ECF461E00E94E92E61E05F
S1134EB070E080E090E00E94321D60E08E810E94EC
S1134EC0E92E6AE070E080E090E00E94321D61E02B
S1134ED08E810E94E92E62E370E080E090E00E94FF
S1134EE0321DCE010E94412440E050E060E170E0B8
S1134EF0CE010E94E62340E050E061E170E0CE0183
S1134F000E94E62340E050E062E170E0CE010E949E
S1134F10E62340E050E063E170E0CE010E94E62326
S1134F2040E050E064E170E0CE010E94E623CE014F
S1134F300E94802468E270E080E090E00E94321DCC
S1134F40CE010E94412448E150E061E170E0CE01CD
S1134F500E94E62341E251E662E170E0CE010E9444
S1134F60E6234FE650E063E170E0CE010E94E623C1
S1134F704FE559E464E170E0CE010E94E62340E08D
S1134F8058E060E170E0CE010E94E623CE010E9469
S1134F9080246AE070E080E090E00E94321DCE013F
S1134FA00E9441244BE350E161E170E0CE010E9494
S1134FB0E623CE010E94802462E370E080E090E06A
S1134FC00E94321DCE010E9441244CE151E061E077
S1134FD070E0CE010E94E62340E051E062E070E020
S1134FE0CE010E94E62348E350E163E070E0CE0185
S1134FF00E94E62340E050E067E070E0CE010E94AA
S1135000E62348E058E068E070E0CE010E94E62321
S113501040E051E16BE070E0CE010E94E62340E005
S113502050E06CE070E0CE010E94E62341E05DE0D8
S11350306FE070E0CE010E94E62340E250E065E1BB
S113504070E0CE010E94E62340E050E060E270E0B0
S1135050CE010E94E62340E050E061E270E0CE0120
S11350600E94E62340E050E060E370E0CE010E943D
S1135070E6234BED50E061E370E0CE010E94E623AD
S113508040E050E062E370E0CE010E94E62340E09D
S113509050E063E370E0CE010E94E6234BED50E064
S11350A064E370E0CE010E94E62340E050E065E353
S11350B070E0CE010E94E6234FEA50E066E370E020
S11350C0CE010E94E62340E050E067E370E0CE01A9
S11350D00E94E6234BED50E068E370E0CE010E94AD
S11350E0E62340E050E069E370E0CE010E94E6234D
S11350F040E050E060E570E0CE010E94E62348E025
S113510058E061E570E0CE010E94E6234AE058E0F1
S113511062E570E0CE010E94E6234AE050E063E5D8
S113512070E0CE010E94E62348E05AE064E570E0B6
S1135130CE010E94E62348E058E065E570E0CE0128
S11351400E94E62340E050E066E570E0CE010E9454
S1135150E62340E05AE067E570E0CE010E94E623D2
S113516040E157E068E570E0CE010E94E62340E1AB
S113517057E069E570E0CE010E94E62342E150E089
S113518067E070E0CE010E94E623CE010E948024F5
S113519062E370E080E090E00E94321DCE010E9444
S11351A0412447E150E167E070E0CE010E94E6232C
S11351B0CE010E94802461E0CE010E942B2360E096
S11351C0CE010E943A231D821C82CE01DF91CF9131
S11351D00C947A26EF92FF920F931F93CF93DF9351
S11351E000D000D0CDB7DEB77A8369835C834B836C
S11351F0DC014D915C9111976417750768F512965F
S11352006D917C9113974B815C814617570720F56C
S113521079018C01AE014D5F5F4FBE016F5F7F4F1F
S11352200E94E822C8010E94412449815A8160E217
S113523070E0C8010E94E6234B815C8161E270E06A
S1135240C8010E94E623A70162E270E0C8010E943F
S1135250E623C8010E9480240F900F900F900F90B6
S1135260DF91CF911F910F91FF90EF9008952F92AE
S11352703F924F925F926F927F928F929F92AF92E2
S1135280BF92CF92DF92EF92FF920F931F93CF932F
S1135290DF9300D000D000D0CDB7DEB74C017E83C1
S11352A06D836A015901FC82EB823801641A750A24
S11352B077FE03C071946194710875012D813E815C
S11352C0E21AF30AF7FE03C0F194E194F108E6143C
S11352D0F7045CF49A2D8B2D5801092F182F9D810A
S11352E08E81DE82CD82C92ED82E8D819E81A81614
S11352F0B90658F49C2D8D2D6801092F182F9D8116
S11353008E81BE82AD82A92EB82E95018D819E819B
S1135310281B390B3A83298318012C183D0837FEC2
S113532003C031942194310849805A8057FE03C048
S11353309FEF491A590A55944794C016D10618F09C
S11353400FEF1FEF02C001E010E0C4010E944124EE
S11353502D813E81A216B30600F12B813C81E61417
S1135360F70424F44D815E81B60103C0A6016D816A
S11353707E81C4010E94EA284218530857FE06C0E1
S1135380C00ED11E89819A81480E591E2D813E81FD
S11353902F5F3F4F3E832D83DBCFC40126960FB68C
S11353A0F894DEBF0FBECDBFDF91CF911F910F9157
S11353B0FF90EF90DF90CF90BF90AF909F908F9031
S11353C07F906F905F904F903F902F900C9480242B
S11353D04F925F926F927F928F929F92AF92BF9201
S11353E0CF92DF92EF92FF920F931F93CF93DF93AD
S11353F0EC014B013A01290168010E944124940106
S1135400A301B401CE010E94372983019201A301B3
S1135410B401CE010E94372986019201A601B4018C
S1135420CE010E9437299201A301B201CE010E944C
S11354303729CE01DF91CF911F910F91FF90EF900B
S1135440DF90CF90BF90AF909F908F907F906F90A0
S11354505F904F900C9480242F923F924F925F92D2
S11354606F927F928F929F92AF92BF92CF92DF9270
S1135470EF92FF920F931F93CF93DF93CDB7DEB7D5
S1135480C255D1090FB6F894DEBF0FBECDBF3C01A3
S11354907EAF6DAF2A0128963FAF2EAF2897180133
S11354A02A96DFAECEAE2A972E96BFAEAEAE2E971C
S11354B02F968FAE2F97C801079697FD07969C01EC
S11354C073E0359527957A95E1F724963FAF2EAF93
S11354D02497A9963FADA997311105C080E822967B
S11354E08FAF229704C091E022969FAF2297F301D9
S11354F083818F9382818F9381818F9380818F9316
S113550084E092E09F938F938E010F5F1F4F1F9350
S11355100F930E944036B80188E793E00E94781BFD
S11355202DAD3EAD21963FAF2EAF21970FB6F89427
S1135530DEBF0FBECDBF37FF04C021961FAE1EAE27
S11355402197A20157FE02C040E050E0F301208100
S113555031818DAD9EAD820D931D2817390708F456
S1135560C9019C012150310926963FAF2EAF2697E1
S1135570F3018281938192012E0D3F1D82179307BF
S113558008F49C018901015011096901C41AD50A62
S113559066E0E62E26962EAD3FAD269721966EAD9B
S11355A07FAD2197C3010E94B024C3010E9441240E
S11355B057FE05C0AA24BB24A418B50802C0A12C18
S11355C0B12C57FE05C0EE24FF24E418F50802C0F0
S11355D0E12CF12C97012C0D3D1D2C963FAF2EAFE5
S11355E02C9724968EAD9FAD2497A89E4001A99E2A
S11355F0900CB89E900C1124F12CE12C2C96EEAD5D
S1135600FFAD2C97AE16BF060CF094C0CDACDEAC4B
S113561000E010E028962EAD3FAD2897280D391DE7
S113562061963FAF2EAF6197C501840D951D6396BA
S11356309FAF8EAF6397021513050CF071C0C801BC
S113564087709927892B49F0A9969FADA99799232B
S113565011F0F69428C0FF0C26C0A896EFADA897C9
S1135660EE2391F0F80117FD379633E0F595E795B1
S11356703A95E1F7E80DF91D28962EAD3FAD289730
S1135680E20FF31FF4900FC0C80117FD079623E043
S1135690959587952A95E1F76196EEADFFAD6197F3
S11356A0E80FF91FF08021968EAD9FAD2197C816A3
S11356B0D90684F12696EEADFFAD2697EC15FD05CF
S11356C04CF122968FAD22978F21A9F0EE2071F034
S11356D02A962EAD3FAD2A9763964EAD5FAD639784
S11356E0B601C3010E94EA28E12C14C02A966EADCB
S11356F07FAD2A9709C02F96FFAD2F97F11108C0EF
S11357002E966EAD7FAD2E97C3010E949D2302C0DD
S1135710EE24E3940F5F1F4F2FEFC21AD20A8BCFF0
S11357203FEFA31AB30A24968EAD9FAD2497880E3B
S1135730991E64CFC3010E948024CE5ADF4F0FB656
S1135740F894DEBF0FBECDBFDF91CF911F910F91B3
S1135750FF90EF90DF90CF90BF90AF909F908F908D
S11357607F906F905F904F903F902F9008958F920D
S1135770AF92BF92CF92DF92EF92FF920F931F935B
S11357801F92E1E0EF9388248394A12CB12C0E9412
S11357902C2A0F900F901F910F91FF90EF90DF90A4
S11357A0CF90BF90AF908F9008958E5B9F4FFC0178
S11357B07183608308952F923F924F925F926F920C
S11357C07F928F929F92AF92BF92CF92DF92EF928D
S11357D0FF920F931F93CF93DF9300D000D000D09C
S11357E0CDB7DEB76C015B017A01FC01EE5BFF4FC4
S11357F040815181FA013496E4912E1BFA013296CC
S11358008591949137E0239F800D911D1124FA0115
S113581025903490FC01259134913E832D83FC0125
S1135820329634913A83319624912B833196349174
S11358303C833196849031969490C6010E94412411
S11358401982712C612C2701490C511C97FC5A9424
S1135850A80CB11C87FCBA948B81681659F1E12C11
S1135860F12C4201860C911C89818E0D9A81E916D6
S1135870D8F4877051F48D819E810196ED81FE816B
S1135880E20DF31D74909E838D8377FE08C098010A
S1135890A401B5016E0D7F1DC6010E94EA28770C94
S11358A02FEFE21AF20AE0CF39818A81380F398367
S11358B06394D2CFC6010E9480242C81822F90E071
S11358C026960FB6F894DEBF0FBECDBFDF91CF9101
S11358D01F910F91FF90EF90DF90CF90BF90AF900A
S11358E09F908F907F906F905F904F903F902F90FC
S11358F008956F927F928F929F92AF92BF92CF92B0
S1135900DF92FF920F931F93CF93DF936C01EB0110
S11359105A0139014801FC01EE5BFF4F80819181FE
S1135920892BC1F0F12C6F2D70E0F30184819581F6
S11359306817790778F4C3010E94321F8401282F65
S1135940A501BE01C6010E94DB2B2196C80FD91FF9
S1135950F394E9CFDF91CF911F910F91FF90DF90E6
S1135960CF90BF90AF909F908F907F906F9008954D
S11359708091520490E020915304821B9109089570
S11359809091530480915204981750F4E92FF0E059
S1135990EC5AFB4F208130E09F5F9093530402C088
S11359A02FEF3FEFC9010895E09153048091520411
S11359B0E81730F4F0E0EC5AFB4F808190E0089552
S11359C08FEF9FEF08950895CF93DF93EC01E0915B
S11359D02A04F0912B043097F1F0909153048091B4
S11359E052049817C0F090E0292F30E026173707AB
S11359F054F4DE01A20FB31F4C91D901AC5ABB4F32
S1135A004C939F5FF1CF1092530460935204CB01E7
S1135A10DF91CF910994DF91CF910895E0912C0407
S1135A20F0912D04309729F01092300410922F0435
S1135A3009940895CF92DF92EF92FF920F931F93F0
S1135A40CF93DF937C01CB018A0120912E04222382
S1135A5089F0EB016B01C40ED51ECC15DD0569F090
S1135A606991D701ED91FC910190F081E02DC7017E
S1135A700995F3CF642F0E948D2FC801DF91CF9138
S1135A801F910F91FF90EF90DF90CF900895CF93E7
S1135A90DF931F92CDB7DEB7698320912E042223B2
S1135AA0D1F020912F04203240F021E030E0FC01BD
S1135AB03383228380E090E015C080913004E82F86
S1135AC0F0E0EF5CFB4F998190838F5F809330040B
S1135AD080932F0405C061E0CE0101960E948D2FB2
S1135AE081E090E00F90DF91CF910895FC01138243
S1135AF0128288EE93E0A0E0B0E084839583A683CD
S1135B00B78386E292E091838083089510925304D0
S1135B10109252041092300410922F040E944E2FBF
S1135B208EE09DE20E94BA2F84EE9CE20C94B52F85
S1135B30CB01BA010C94792F81E080932E046093F9
S1135B4051041092300410922F0408950F93062FDD
S1135B5021E040912F0461E374E0809151040E949C
S1135B60C4301092300410922F0410922E040F911E
S1135B7008954F925F926F927F92AF92BF92CF92AD
S1135B80EF92FF920F931F93CF93DF935C01F62E56
S1135B90D42F28013901EE2021F10E949C2DCE2D15
S1135BA0C43008F0C3E0C150C0F028E0C29FC00177
S1135BB01124A301920104C0569547953795279562
S1135BC08A95D2F7CA01B901D501ED91FC910190F2
S1135BD0F081E02DC5010995E6CF60E0C5010E9482
S1135BE0A62D4D2FD13208F040E22C2D64E574E04F
S1135BF08F2D0E94DB2F1092530480935204DF9167
S1135C00CF911F910F91FF90EF90CF90BF90AF90E5
S1135C107F906F905F904F900895CF92EF920F9383
S1135C201F93C22EE12C00E010E098010E94B92DD0
S1135C301F910F91EF90CF90089521E00C940D2EB9
S1135C408EE194E00C94762D08951F93CF93DF9307
S1135C50182FEB0161E00E94AD2E209711F460E053
S1135C6004C0CF3FD10539F461E0812FDF91CF919A
S1135C701F910C94E92EE12FF0E0E152F94DE491EB
S1135C80E330F9F048F4E130B9F0E230A1F584B53D
S1135C90806284BDC8BD34C0E730E9F0E83019F152
S1135CA0E43049F580918000806280938000D09335
S1135CB08B00C0938A0024C084B5806884BDC7BDAE
S1135CC01FC080918000806880938000D0938900F9
S1135CD0C093880015C08091B00080688093B000A4
S1135CE0C093B3000DC08091B00080628093B00077
