:100000000C9439090C9461090C9461090C946109F0
:100010000C9461090C9461090C9461090C946109B8
:100020000C9461090C9461090C9461090C946109A8
:100030000C9461090C9461090C9461090C94610998
:100040000C94EC110C9461090C94B60F0C94E80F0D
:100050000C9461090C9461090C9461090C94610978
:100060000C941D270C9461092616351639163D1679
:100070004116451649164D165116551659165D1658
:100080006116651669166D167116751679167D1648
:100090008116851600407A10F35A00A0724E180996
:1000A0000010A5D4E80000E87648170000E40B54DF
:1000B000020000CA9A3B000000E1F50500008096AE
:1000C0009800000040420F000000A08601000000E0
:1000D000102700000000E80300000000640000009A
:1000E00000000A00000000000100000000002C7663
:1000F000D888DC674F0823DFC1DFAE59E1B1B7967E
:10010000E5E3E453C63AE651997696E8E6C28426DA
:10011000EB898C9B62ED407C6FFCEFBC9C9F40F2B6
:10012000BAA56FA5F490055A2AF75C936B6CF96732
:100130006DC11BFCE0E40D47FEF520E6B500D0EDF7
:10014000902E0300943577050080841E080000205F
:100150004E0A000000C80C333333330F986E1283FD
:100160001141EF8D2114893BE65516CFFEE6DB18D1
:10017000D1844B381BF77C1D901DA4BBE424203296
:1001800084725E228100C9F124ECA1E53D270000C4
:10019000000000000000000000003FFFFF003FFFE4
:1001A00081003FFF81003FFF81F83FFF80083FFF54
:1001B00080083FFF80083FFF80083FFF80083FFF27
:1001C00080083FFF81F83FFF81003FFF81003FFF34
:1001D000FF000000000000000000000000007E049E
:1001E000E501207E16000000000500010000020C61
:1001F0000602F5030005040701F50600090C0900D5
:10020000F51400080E0901F422000D0C0F01F5365B
:10021000000D0D0E01F44C0002040401F54D000523
:100220000F0601F55700050F0600F56100060809E5
:1002300003F5670009090A00F872000203040200CE
:10024000730004010601FD740002020501FF750040
:10025000050C0500F57D00090D0900F48C00050D65
:100260000902F49500080C0901F5A100080C090029
:10027000F5AD00070C0901F5B800080C0900F5C43C
:1002800000080D0901F4D100080C0900F5DD000794
:100290000D0901F4E900080E0901F4F70002080550
:1002A00001F9F900030A0501F9FD0009090A01F83D
:1002B000080109050A01FA0E010A090A00F81A01E3
:1002C000070D0801F426010C0D1002F43A010D0C83
:1002D0000D00F54E010B0C0B00F55F010B0C0C0132
:1002E000F570010C0C0D00F582010A0C0B01F59163
:1002F00001090C0A01F59F010C0C0D01F5B1010B70
:100300000C0D01F5C201040C0601F5C801060C072D
:1003100000F5D1010C0C0D01F5E3010A0C0B01F500
:10032000F2010F0C1000F509020B0C0D01F51A0279
:100330000B0D0D01F42C02090C0A01F53A020B1009
:100340000D01F450020B0C0C01F56102090C0A00BE
:10035000F56F020B0C0B00F580020B0C0D01F591F3
:10036000020C0C0D00F5A302110C1100F5BD020DDD
:100370000C0D00F5D1020C0C0D00F5E3020B0C0B7B
:1003800000F5F402030F0602F5FA02050C0500F56C
:100390000203030F0601F5080308070800F50F0321
:1003A0000901090002110304030500F513030708FE
:1003B0000801F91A03090D0900F4290307080800C8
:1003C000F93003090D0900F43F0308080800F94754
:1003D00003070D0701F453030A0C0800F96203092F
:1003E0000D0900F47103040B0501F67703050F06F0
:1003F00000F68103090D0901F49003040D0501F4D1
:1004000097030E080E00F9A50309080900F9AE03C9
:1004100009080900F9B703090C0900F9C503090C1B
:100420000900F9D30306080600F9D90306080701F5
:10043000F9DF0305090500F8E50309080900F9EEED
:100440000308080800F9F6030C080C00F902040977
:10045000080900F90B04080C0800F917040708073D
:1004600001F91E0405100901F42804010C0401F52A
:100470002A0405100903F5340409030900FBFFEA07
:1004800003DEF720110904824FF91089FF241209B5
:100490000C80107CD6D2D0F0381E179393D67C10E7
:1004A00038433C39218A0C506539CB20B905884C3A
:1004B000446421C00E00C806403201A0077831878D
:1004C0008846863430C1C717CF00FE088884631879
:1004D000C6108208208208210C6318C422220063FF
:1004E0009ADC72B608080402010FF84020100800D8
:1004F000D8F0F0088422108C4231001C3198D83C8E
:100500001E0F0783C1E0D8C461C0138C6318C631C5
:100510008C67803C4E860606040C08102041FE3C89
:10052000C606041C3E0703030306F804187164C9D9
:10053000A346FE1830600F10203C0E070303030291
:1005400004F8071C306060DCE6C3C3C343663C7F2D
:1005500082020204040408080810103C8F1E3E4F5B
:100560000636C78F1B33C03C66C2C3C3C3C3633FD9
:1005700006060C3860F00FD800032801870E1C0C0B
:100580000380700E0080FF8000000FF8801C01C007
:100590001C01C0E0E0E0C000791A1830608304104C
:1005A000204003000F838C602602C79CC9D89D9908
:1005B000D926EC6003040F8002001001C0160098D9
:1005C00004C04303F8206103181DE1F0FF861CC13D
:1005D00098330C7E0C318330660CC37FC01F261D00
:1005E00081E01C0180300600C00C00C18FC0FF03F9
:1005F0001C30630730330330330330330630CFF021
:10060000FF98260180611FC611806018160FFEFF3B
:10061000B0580C0613F984C06030181E001F230E5A
:10062000602600C00C0FC06C06C066063060F8F192
:10063000EC198330660CFF98330660CC198378F090
:10064000F6666666666F3C6186186186186DBCF357
:10065000E6086106206407806C066063061860CFB8
:100660003FF01806018060180601806018160BFE26
:10067000F00E7038E071E162C2C5C9899313262378
:100680008C4718843388F0E0EE09C12C25C49C9176
:10069000921A41C8190370201F063183202C07804D
:1006A000F01E03C068098318C1F0FE31986C361B38
:1006B00019F8C06030181E001F063183202C0780F7
:1006C000F01E03C068198318C0E00E00E007FE0C9E
:1006D000618630C618C61F8370670C718778701DDD
:1006E00031984C0780E01C0701A0D8CBC0FFF8CEA2
:1006F000188300600C0180300600C0180780F0EC01
:100700000981302604C0981302604C08C20F80F89B
:1007100077023023041841840C80C807007002005F
:1007200020FBE7B0C08C208618418C40CB20659020
:100730001A700E38031C0104008200FCF9830610B5
:100740001900D003001C013011C1860819E3F0F82C
:10075000F6063041881D00D00600600600600600E5
:10076000F03FCC11060180700C0300E0380605C193
:100770007FE0FB6DB6DB6DB88210821086108610AC
:10078000EDB6DB6DB6F8181C34266242C1FF8084DA
:1007900020799830E6D9B33F2070180C060371CC4D
:1007A000C361B0D86C63E03CCF060C18189E0103FF
:1007B00080C06031D99D86C361B0CC63F03C46FEF9
:1007C000C0C0E1623C1E4183061E183060C1830F29
:1007D000003C19F6318C1E080401FC40B02E11F8C3
:1007E0002070180C060371CCC6633198CC6F78600A
:1007F00002E66666F01800338C6318C6318B8020E1
:1008000070180C06033D88D87836198C6F782E66E0
:1008100066666666F0EE71CE663198C663198C66C0
:1008200031BDEFEE3998CC6633198DEF3E31B0789B
:100830003C1E0D8C7CEE39986C361B0D8CFC6030A8
:10084000181E003D31B0D86C361B8CFE030180C0F1
:10085000F06DC61861863C7638583E38FE2798C63B
:10086000318C38E73198CC6633198C7FF3612232B2
:10087000141C0808EF366162223235419C18810849
:10088000F7120E0301C12109CFF361623234141C47
:1008900008080810E0FD1860830C70FE198C6318BE
:1008A000C4618C6318C3FFF0C318C631843318C603
:1008B00031987024C1C00C102060070000000000B7
:1008C0000000000000000000000000000000000028
:1008D000000000080000000000007C00FF33FF3330
:1008E000FF337C0000000000000000000900000051
:1008F000003C003C003C0000003C003C003C000090
:1009000000000000000C0002101E901FF01FFE03EC
:100910007E1E9E1FF01FFE037E021E0010000A00B6
:10092000007804FC0CFC0CFF3FFF3FFF3FCC0FCCDA
:100930000F8807000000000C00303838383C381EA3
:10094000380F8007C003E039F03878383C381C0095
:100950000B0000001FB83FFC3FFE31E637FE3F3E74
:100960001E1C3E00360022000007000000000000B0
:1009700027003F003F001F000000000000000000B3
:1009800000000900000000F003FC0FFE1FFF3F07FE
:1009900038012001200000000000000900000000D4
:1009A000012001200738FF3FFE1FFC0FF00300006D
:1009B000000000000A0000980CB80EF80FF80FF8BD
:1009C0000FF80FF80FB80E980C000000000A000096
:1009D000800180018001F00FF00FF00F8001800195
:1009E0008001000000000700000000000000B800C7
:1009F000F800F80078000000000000000000000A85
:100A0000000080018001800180018001800180015F
:100A100080018001000000000700000000000000CD
:100A200038003800380038000000000000000000E6
:100A3000000C0018001C001E000F8007C003E0011E
:100A4000F00078003C001E000E000CF807FE1FFEB0
:100A50001F073F8333C331E33073303F38FE1FFE3F
:100A60001FF8070B000000000C300C300E30FF3F69
:100A7000FF3FFF3F00300030003000000C1C301EF4
:100A8000381F3C073E033F8337C333E331F7307FE2
:100A9000303E301C300C0C0C0E1C0F3CC738C330E1
:100AA000C330C330C330E739FF3F7E1F3C0E0CC05C
:100AB00003E003F00378033C031E030F03FF3FFF33
:100AC0003FFF3F000300030C3F0C7F1C7F3C63385B
:100AD0006330633063306330E338E33FC31F830F19
:100AE0000CC00FF01FF83FFC39DE30CF30C730C3E9
:100AF00030C339C33F801F000F0C03000300030005
:100B00000330033C033FC30FF303FF003F000F001C
:100B100003000C000FBC1FFE3FFF39E730C330C39A
:100B200030E730FF39FE3FBC1F000F0C3C007E0059
:100B3000FF30E730C330C338C33CC31EE70FFF07A5
:100B4000FE03FC0007000000000000701C701C7019
:100B50001C701C00000000000000000000070000E6
:100B600000000000709C70FC70FC707C00000000B5
:100B70000000000000000A0000C000E001F003F8DF
:100B8000073C0F1E1E0F3C07380330000000000B0F
:100B9000000060066006600660066006600660068B
:100BA00060066006600600000A0000033007380F88
:100BB0003C1E1E3C0FF807F003E001C000000000DF
:100BC000000B1C001E001F0007008337C337E337EC
:100BD000F7007F003E001C0000000CF80FFE1FFF16
:100BE0001FF73BFB37FB37FB37FB37FF37FF37FE82
:100BF00003F8010B0038003FE03FFC07FF061F062B
:100C0000FF06FC07E03F003F003800000BFF3FFFFE
:100C10003FFF3FC330C330C330E730FF39FE3FBC36
:100C20001F000F00000BF003FC0FFE1F0F3C0738E6
:100C30000330033007380F3C0E1C0C0C00000BFF78
:100C40003FFF3FFF3F03300330033007380F3CFEC8
:100C50001FFC0FF00300000BFF3FFF3FFF3FC330BF
:100C6000C330C330C330C330C3300330033000005F
:100C70000BFF3FFF3FFF3FC300C300C300C300C3E0
:100C800000C3000300030000000BF003FC0FFE1F75
:100C90000F3C0738C330C330C330C73FC73FC63FE0
:100CA00000000BFF3FFF3FFF3FC000C000C000C07F
:100CB00000C000FF3FFF3FFF3F00000900000000B1
:100CC00003300330FF3FFF3FFF3F0330033000009E
:100CD000000000000B000E001E003E003800300037
:100CE0003000300038FF3FFF1FFF0700000BFF3FC1
:100CF000FF3FFF3FE001F003F8073C0F1E1E0F3CD3
:100D00000738033000000BFF3FFF3FFF3F0030007C
:100D10003000300030003000300030003000000B78
:100D2000FF3FFF3FFF3F7E00F801E001F8017E003A
:100D3000FF3FFF3FFF3F00000BFF3FFF3FFF3F3EF6
:100D400000F800F003C007001FFF3FFF3FFF3F0018
:100D5000000BF003FC0FFE1F0F3C07380330073871
:100D60000F3CFE1FFC0FF00300000BFF3FFF3FFF97
:100D70003F8301830183018301C701FF01FE007CE2
:100D80000000000BF003FC0FFE1F0F3C073803367A
:100D9000073E0F3EFE3FFC3FF03300000BFF3FFFDE
:100DA0003FFF3F830183038307830FC71FFF3DFE80
:100DB000387C3000000B3C0C7E1CFF3CE738C33015
:100DC000C330C330C739CF3F8E1F0C0F00000A005D
:100DD00000030003000300FF3FFF3FFF3F0300034A
:100DE000000300000000000BFF07FF1FFF3F00385B
:100DF0000030003000300038FF3FFF1FFF070000C9
:100E00000B07003F00FF01F80FC03F003EC03FF856
:100E10000FFF013F00070000000BFF3FFF3FFF3FB8
:100E2000001E800780038007001EFF3FFF3FFF3F3B
:100E300000000B03300F3C1F3E3C0FF003E001F0BD
:100E4000033C0F1F3E0F3C033000000B03000F005C
:100E50003F00FC00F03FC03FF03FFC003F000F00B0
:100E6000030000000B0330033C033E033FC333E3A6
:100E700031F3303F301F300F3003300000090000E5
:100E80000000FF3FFF3FFF3F0330033003300330DC
:100E90000000000000000C0E001E003C007800F076
:100EA00000E001C0038007000F001E001C001809AD
:100EB000000000000330033003300330FF3FFF3FEA
:100EC000FF3F0000000000000C6000700078003C54
:100ED000001E000F000F001E003C00780070006034
:100EE000000C00C000C000C000C000C000C000C0B6
:100EF00000C000C000C000C000C00800000000002A
:100F00000000003E007E007E004E00000000000059
:100F10000000000B001C403E603F603360336033D4
:100F200060336033E03FE03FC03F00000BFF3FFF16
:100F30003FFF3FE030603060306030E038E03FC07D
:100F40001F800F00000B800FC01FE03FE0386030B3
:100F5000603060306030E038C018800800000B80DE
:100F60000FC01FE03FE03860306030E030E030FF1D
:100F70003FFF3FFF3F00000B800FC01FE03FE03B03
:100F80006033603360336033E033C01380010000AE
:100F900009C000C000FC3FFE3FFF3FC700C300C3C5
:100FA0000003000000000000000B8003C0C7E0CF7A
:100FB000E0CE60CC60CC60CC60EEE0FFE07FE03F54
:100FC00000000AFF3FFF3FFF3FE00060006000E0DD
:100FD00000E03FC03F803F0000000009000000002B
:100FE00000306030EC3FEC3FEC3F00300030000060
:100FF000000000000900000000006000E000E06068
:10100000C0ECFFECFFEC7F0000000000000A0000D5
:10101000FF3FFF3FFF3F8007C00FE01FE03C60380D
:10102000003000000000090000000000300330FF25
:101030003FFF3FFF3F003000300000000000000B8A
:10104000E03FE03FE03FE000E03FC03FE03FE00046
:10105000E03FC03F803F00000B0000E03FE03FE08A
:101060003F600060006000E000E03FC03F803F0064
:10107000000B800FC01FE03FE03860306030603010
:10108000E038E03FC01F800F00000BE0FFE0FFE012
:10109000FF601C601860186018E01CE01FC00F8023
:1010A0000700000B8007C00FE01FE01C60186018ED
:1010B0006018601CE0FFE0FFE0FF00000B0000E0B4
:1010C0003FE03FE03FE000600060006000E000E0E3
:1010D00000C000000009C011E033E033603360332A
:1010E0006033603F603F401E000000000000096068
:1010F000006000FE1FFE3FFE3F6030603060300049
:10110000300000000000000BE00FE01FE03F00385F
:101110000030003000300038E03FE03FE03F0000AA
:101120000B6000E001E007801F003E0038003E80B9
:101130001FE007E001600000000BE007E01FE03F58
:10114000003CE01FE00FE01F003CE03FE01FE00735
:1011500000000A6030E038E03DC01F800F800FC003
:101160001FE03DE0386030000000000A0000600031
:10117000E081E0E780FF007E801FE007E001600083
:10118000000000000A60306038603C603E6037E07C
:1011900033E031E03060302030000000000A000011
:1011A0008000C001FC1FFE3F7F7F0770036003606B
:1011B000036000000000070000000000000000FFC6
:1011C0003FFF3FFF3F000000000000000000000A5A
:1011D000000003600360036007707F7FFE3FFC1F19
:1011E000C0018000000000000B100018001C000C63
:1011F000000C001C00180018001C000C000400006B
:10120000000B000F800FC00FE00C700C300C700C46
:10121000E00CC00F800F000F00000000000800026B
:1012200001000003040700000000000000000102AC
:101230000408102040800102040810200102040864
:101240001020040404040404040402020202020242
:1012500003030303030300000000250028002B0004
:1012600000000000240027002A00860C18105123DB
:10127000A20C11241FBECFEFD8E0DEBFCDBF12E01D
:10128000A0E0B1E0E4E3F1E602C005900D92AE32D9
:10129000B107D9F724E0AEE2B2E001C01D92AA3E48
:1012A000B207E1F719E0C8E3D9E004C02197FE01D5
:1012B0000E942629C533D107C9F70E9446100C9415
:1012C0008D300C940000CF92DF92EF92FF920F933B
:1012D0001F93CF93DF93CDB7DEB72C970FB6F8945B
:1012E000DEBF0FBECDBF26E040E855E260E070E013
:1012F00082E793E00E944E0F88E193E00E94D91BA1
:1013000088E193E00E94AB1B63E088E193E00E94D8
:10131000631861E088E193E00E94541888E193E04B
:101320000E9480188C0188E193E00E947C18015093
:1013300011099C0121503109EE24EA94FE2C40E071
:1013400050E060E070E088E193E00E94191F88E1BE
:1013500093E00E9480188C0188E193E00E947C1841
:10136000025011099C012250310941E050E061E036
:1013700070E088E193E00E94191F88E193E00E94E9
:1013800080188C0188E193E00E947C1803501109B9
:101390009C012350310942E050E062E070E088E1B6
:1013A00093E00E94191F0CE810E02EEB30E044E6B9
:1013B00050E06EE170E088E193E00E94191F0DE8B3
:1013C00010E02FEB30E043E650E06DE170E088E1A3
:1013D00093E00E94191F0EE810E020EC30E042E696
:1013E00050E06CE170E088E193E00E94191F0FE883
:1013F00010E021EC30E041E650E06BE170E088E184
:1014000093E00E94191F40E066EB78E088E193E0EA
:101410000E9447196BE771E0CE0107960E94851381
:101420006EED71E088E193E00E9406216EE171E0CB
:10143000CE0107960E940314BE01695F7F4FCE0163
:1014400001960E94EE130FEF1FEF9E012F5F3F4F9B
:1014500046E450E06FE070E088E193E00E94AA214A
:10146000CE0101960E94141368E271E0CE01079646
:101470000E940314BE01695F7F4FCE0101960E9456
:10148000EE139E012F5F3F4F46E450E06EE670E0A2
:1014900088E193E00E94AA21CE0101960E941413D4
:1014A0006EE271E0CE0107960E940314BE01695FEF
:1014B0007F4FCE0101960E94EE139E012F5F3F4F9A
:1014C00046E450E060EA70E088E193E00E94AA21DF
:1014D000CE0101960E941413CC24CA94DC2C24E182
:1014E000E22EF12C0EE110E02EE831E04AE050E06F
:1014F0006AEA70E088E193E00E94E8208EE292E0E0
:101500000E94011797FF07C062E371E082E793E052
:101510000E94A110FFCFCE0107960E9414132C96B3
:101520000FB6F894DEBF0FBECDBFDF91CF911F91F4
:101530000F91FF90EF90DF90CF900895EF92FF9280
:101540000F931F937B016EE170E00E94D1289B01F5
:101550002D5D3F4F07E810E049E650E063E270E0A0
:1015600088E193E00E94651B1F910F91FF90EF901F
:1015700008954F925F926F927F92AF92BF92CF92F7
:10158000DF92EF92FF920F931F93CF93DF9300D0E0
:1015900000D000D0CDB7DEB78EE292E00E944617B1
:1015A0008EE292E00E9411166B017C0120E035E88A
:1015B0004FEC59E40E94490E87FF09C0C0926E03A8
:1015C000D0926F03E0927003F092710308C0109202
:1015D0006E0310926F03109270031092710320E05B
:1015E00030E04AE754E460916E0370916F0380919C
:1015F0007003909171030E94130D6B017C0108EC44
:1016000010E0412C512C3201A7019601C301B20117
:101610000E94A70C2B013C0161E070E080E090E0AB
:101620000E945B120150110979F720E030E048E494
:1016300053E4C301B2010E94130D2B013C0160E78A
:1016400071E082E793E00E94941024E030E0B3015F
:10165000A20182E793E00E94EA116CE771E082E761
:1016600093E00E94941063E971E082E793E00E94A6
:101670009410C301B2010E94850D1F921F9221E1B7
:101680002F9324E92F93A12CB12C650114E6E12EB0
:10169000F12C00E010E020E030E0A9010E94D2121D
:1016A00070936303609362034092660350926703F2
:1016B000609268037092690320E030E04AE754E4E6
:1016C000C301B2010E94130DAB01BC0123E0CE01A6
:1016D00001960E941A14BE016F5F7F4F8CE593E064
:1016E0000E94F713CE0101960E94141340906603E6
:1016F000509067036090680370906903C0906A031C
:10170000D0906B03E0906C03F0906D03A7019601FD
:10171000C301B2010E94A60C0F900F900F900F9082
:1017200020E030E040E85FE30E94490E181674F0B4
:10173000A3019201C701B6010E94A60C20E030E08F
:1017400040E85FE30E94490E18162CF5E12CF12CBD
:1017500000E510E02BE930E042E350E06EE670E097
:1017600088E193E00E94651B6CE573E0CE01019671
:101770000E94EE130FEF1FEF9E012F5F3F4F46E4D5
:1017800050E06EE670E088E193E00E94AA21CE016D
:1017900001960E941413C0906603D0906703E090F6
:1017A0006803F090690340906A0350906B03609067
:1017B0006C0370906D03A3019201C701B6010E94F2
:1017C000A60C20E030E040E85FE30E94490E1816C6
:1017D00064F48091620390916303843823E092075C
:1017E00008F056C06FEF77EF62C0A7019601C30102
:1017F000B2010E94A60C20E030E040E85FE30E94C6
:10180000490E18160CF06DC0809164039091650329
:101810000EE110E0B8010E94D128072E000C880BC1
:10182000990B0E94BD0D20E030E04CE052E40E9494
:10183000A70C0E948C0D2B013C01809162039091BA
:101840006303B8010E94D128072E000C880B990B66
:101850000E94BD0D20E030E04CE052E40E94A70C55
:101860000E948C0DE12CF12C07E810E0920149E672
:1018700050E088E193E00E94651B809162039091A3
:101880006303843843E0940718F460EA7EEF0FC0E6
:101890009C01245833402C383A4018F460EE77E02D
:1018A00006C080312EE0920724F060E078EF0E94BD
:1018B0009E0A8091660390916703A0916803B0919E
:1018C000690380936A0390936B03A0936C03B093B6
:1018D0006D038091620390916303909365038093FD
:1018E000640326960FB6F894DEBF0FBECDBFDF911E
:1018F000CF911F910F91FF90EF90DF90CF90BF900D
:10190000AF907F906F905F904F900895EF920F93FC
:101910006BE771E08CE593E00E94851388ECE82E7C
:1019200003E02AE049E068E088E193E00E94EA17DA
:101930002FE040E168E174E08EE292E00F91EF90D9
:101940000C945D148CE593E00C9414135058BB2751
:10195000AA270E94BE0C0C940F0E0E94010E38F0B4
:101960000E94080E20F039F49F3F19F426F40C94DD
:10197000FE0D0EF4E095E7FB0C94F80DE92F0E94A4
:10198000200E58F3BA17620773078407950720F0F3
:1019900079F4A6F50C94420E0EF4E0950B2EBA2FB6
:1019A000A02D0B01B90190010C01CA01A001112465
:1019B000FF27591B99F0593F50F4503E68F11A1611
:1019C000F040A22F232F342F4427585FF3CF4695A2
:1019D00037952795A795F0405395C9F77EF41F16C4
:1019E000BA0B620B730B840BBAF09150A1F0FF0F8E
:1019F000BB1F661F771F881FC2F70EC0BA0F621F7A
:101A0000731F841F48F4879577956795B795F79569
:101A10009E3F08F0B0CF9395880F08F09927EE0FFE
:101A20009795879508950E94270D0C940F0E0E949C
:101A3000080E58F00E94010E40F029F45F3F29F093
:101A40000C94F80D51110C94430E0C94FE0D0E9451
:101A5000200E68F39923B1F3552391F3951B550B91
:101A6000BB27AA2762177307840738F09F5F5F4F71
:101A7000220F331F441FAA1FA9F335D00E2E3AF0B0
:101A8000E0E832D091505040E695001CCAF72BD0C8
:101A9000FE2F29D0660F771F881FBB1F2617370719
:101AA0004807AB07B0E809F0BB0B802DBF01FF274B
:101AB00093585F4F3AF09E3F510578F00C94F80D23
:101AC0000C94430E5F3FE4F3983ED4F386957795EC
:101AD0006795B795F7959F5FC9F7880F911D969504
:101AE000879597F90895E1E0660F771F881FBB1F60
:101AF000621773078407BA0720F0621B730B840B0D
:101B0000BA0BEE1F88F7E09508950E948C0D68943B
:101B1000B1110C94430E08950E94280E88F09F572F
:101B200098F0B92F9927B751B0F0E1F0660F771F01
:101B3000881F991F1AF0BA95C9F714C0B13091F0F7
:101B40000E94420EB1E008950C94420E672F782F48
:101B50008827B85F39F0B93FCCF3869577956795BC
:101B6000B395D9F73EF490958095709561957F4F28
:101B70008F4F9F4F0895E89409C097FB3EF49095CE
:101B80008095709561957F4F8F4F9F4F9923A9F056
:101B9000F92F96E9BB279395F695879577956795E5
:101BA000B795F111F8CFFAF4BB0F11F460FF1BC029
:101BB0006F5F7F4F8F4F9F4F16C0882311F096E9BC
:101BC00011C0772321F09EE8872F762F05C066236A
:101BD00071F096E8862F70E060E02AF09A95660F23
:101BE000771F881FDAF7880F9695879597F90895DC
:101BF00097F99F6780E870E060E008959FEF80ECC0
:101C0000089500240A941616170618060906089562
:101C100000240A9412161306140605060895092EC8
:101C20000394000C11F4882352F0BB0F40F4BF2B37
:101C300011F460FF04C06F5F7F4F8F4F9F4F089577
:101C400057FD9058440F551F59F05F3F71F047956D
:101C5000880F97FB991F61F09F3F79F08795089552
:101C6000121613061406551FF2CF4695F1DF08C071
:101C7000161617061806991FF1CF8695710561058E
:101C800008940895E894BB2766277727CB0197F936
:101C900008950E944E0E08F48FEF0895990F0008E2
:101CA000550FAA0BE0E8FEEF16161706E807F9072E
:101CB000C0F012161306E407F50798F0621B730BC9
:101CC000840B950B39F40A2661F0232B242B252B4A
:101CD00021F408950A2609F4A140A6958FEF811DED
:101CE000811D0895FC01918D228D892F90E0805CEB
:101CF0009F4F821B91098F7399270895FC01918D45
:101D0000828D981731F0828DE80FF11D858D90E05E
:101D100008958FEF9FEF0895FC01918D828D9817A4
:101D200061F0828DDF01A80FB11D5D968C91928DBF
:101D30009F5F9F73928F90E008958FEF9FEF0895BC
:101D4000FC01538D448D252F30E0842F90E0821BC1
:101D5000930B541710F0CF960895019708958EE0D5
:101D600090E1892B49F080E090E0892B29F00E94D6
:101D70000E1081110C9400000895FC01848DDF0188
:101D8000A80FB11DA35ABF4F2C91848D90E00196EE
:101D90008F739927848FA689B7892C93A089B189DD
:101DA0008C91837080648C93938D848D981306C07E
:101DB0000288F389E02D80818F7D80830895EF92E2
:101DC000FF920F931F93CF93DF93EC0181E0888FF5
:101DD0009B8D8C8D981305C0E889F989808185FDDC
:101DE00026C0F62E0B8D10E00F5F1F4F0F731127CB
:101DF000E02E8C8DE8120CC00FB607FCFACFE889F4
:101E0000F989808185FFF5CFCE010E94BD0EF1CF0B
:101E10008B8DFE01E80FF11DE35AFF4FF0829FB753
:101E2000F8940B8FEA89FB89808180620AC09FB792
:101E3000F894EE89FF896083E889F989808183704D
:101E4000806480839FBF81E090E0DF91CF911F91FC
:101E50000F91FF90EF900895CF93DF93EC01888D61
:101E60008823C9F0EA89FB89808185FD05C0A8899E
:101E7000B9898C9186FD0FC00FB607FCF5CF808124
:101E800085FFF2CFA889B9898C9185FFEDCFCE016E
:101E90000E94BD0EE7CFDF91CF910895CF92DF92E0
:101EA000EF92FF921F93CF93DF93EC016A017B01C6
:101EB000122FE889F98982E080834115514E61052E
:101EC0007105B1F060E079E08DE390E0A701960143
:101ED0000E94E528DA01C9010197A109B109B69567
:101EE000A795979587959C01211580E13807A8F063
:101EF000E889F989108260E874E88EE190E0A70132
:101F000096010E94E528DA01C9010197A109B109EA
:101F1000B695A795979587959C01EC85FD853083AF
:101F2000EE85FF852083188EEC89FD891083EA8970
:101F3000FB89808180618083EA89FB898081886058
:101F40008083EA89FB89808180688083EA89FB89B4
:101F500080818F7D8083DF91CF911F91FF90EF90E3
:101F6000DF90CF90089580E090E008951F920F9247
:101F70000FB60F9211242F938F939F93EF93FF939C
:101F8000E0918203F09183038081E0918803F091D6
:101F9000890382FD12C0908180918B038F5F8F73C4
:101FA00020918C03821751F0E0918B03F0E0EE5802
:101FB000FC4F958F80938B0301C08081FF91EF913F
:101FC0009F918F912F910F900FBE0F901F9018959A
:101FD0001F920F920FB60F9211242F933F934F939E
:101FE0005F936F937F938F939F93AF93BF93EF9381
:101FF000FF9382E793E00E94BD0EFF91EF91BF91A6
:10200000AF919F918F917F916F915F914F913F9190
:102010002F910F900FBE0F901F90189582E793E0BD
:102020000E94720E21E0892B09F420E0822F08958E
:10203000E2E7F3E01382128288EE93E0A0E0B0E0E2
:1020400084839583A683B78384E891E0918380831A
:1020500085EC90E09587848784EC90E0978786876D
:1020600080EC90E0918B808B81EC90E0938B828B65
:1020700082EC90E0958B848B86EC90E0978B868B3E
:10208000118E128E138E148E089508950E94971249
:102090000E9445100E946309CFEADEE00E94B90A5F
:1020A0002097E1F30E94AF0EF9CFCF92DF92EF922B
:1020B000FF920F931F93CF93DF936C017A018B01F3
:1020C000C0E0D0E0CE15DF0581F0D8016D918D0123
:1020D000D601ED91FC910190F081E02DC6010995AA
:1020E000892B11F02196EECF7E01C701DF91CF91B0
:1020F0001F910F91FF90EF90DF90CF9008956115A1
:10210000710579F0FB0101900020E9F73197AF01EB
:10211000461B570BDC01ED91FC910280F381E02D11
:10212000099480E090E008950C947F10DC01ED911B
:10213000FC910190F081E02D099462E971E00C942A
:102140007F100F931F93CF93DF93EC010E947F10BA
:102150008C01CE010E949D10800F911FDF91CF91C5
:102160001F910F9108958F929F92AF92BF92EF921D
:10217000FF920F931F93CF93DF93CDB7DEB7A19755
:102180000FB6F894DEBF0FBECDBF7C01FA01CB01C4
:1021900019A2223008F42AE08E010F5D1F4F822E13
:1021A000912CA12CB12CBF01A50194010E94E5281E
:1021B000F901CA01015011096A3010F4605D01C0D3
:1021C000695CD8016C93232B242B252B61F7B80174
:1021D000C7010E947F10A1960FB6F894DEBF0FBE14
:1021E000CDBFDF91CF911F910F91FF90EF90BF90E6
:1021F000AF909F908F9008952115310541F4DC0137
:10220000ED91FC910190F081E02D642F09940C94E4
:10221000B3109A01AB0160E070E00C94FC107F9267
:102220008F929F92AF92BF92CF92DF92EF92FF92E6
:102230000F931F93CF93DF938C016A017B01722E62
:102240009A01AB01C701B6010E94BC28882319F08E
:1022500065E971E027C046015701E894B7F82FEF10
:102260003FEF4FE75FE7C501B4010E94BC28811131
:102270000DC02FEF3FEF4FE75FE7C501B4010E94AC
:102280004A2818161CF469E971E00CC02FEF3FEFE3
:102290004FE75FE4C701B6010E94490E181694F497
:1022A0006DE971E0C801DF91CF911F910F91FF900F
:1022B000EF90DF90CF90BF90AF909F908F907F90E6
:1022C0000C947F102FEF3FEF4FE75FECC701B60193
:1022D0000E944A2887FDE4CF20E030E0A901C70131
:1022E000B6010E944A2887FF0AC06DE2C8010E9419
:1022F0009610EC01F7FAF094F7F8F09402C0C0E001
:10230000D0E0B12C60E070E080E09FE37B1441F00E
:1023100020E030E040E251E40E94130DB394F6CF88
:10232000A70196010E94A70C6B017C010E948C0DF5
:102330004B015C012AE0AB01BC01C8010E94B31053
:10234000C80FD91F7720B9F1C501B4010E94BB0D98
:102350009B01AC01C701B6010E94A60C6B017C0178
:102360006EE2C8010E949610C80FD91F20E030E02D
:1023700040E251E4C701B6010E944F284B015C01C5
:102380000E948C0D6B017C014AE050E0C8010E9464
:102390000911C80FD91FB60180E090E00E94BB0D63
:1023A0009B01AC01C501B4010E94A60C6B017C012C
:1023B0007A947110DBCFCE01DF91CF911F910F91F5
:1023C000FF90EF90DF90CF90BF90AF909F908F9055
:1023D0007F9008950C940F111F920F920FB60F92D9
:1023E00011242F933F938F939F93AF93BF9380912B
:1023F000100490911104A0911204B0911304309133
:102400000F0423E0230F2D3720F40196A11DB11DE9
:1024100005C026E8230F0296A11DB11D20930F04CD
:102420008093100490931104A0931204B0931304AA
:102430008091140490911504A0911604B091170492
:102440000196A11DB11D8093140490931504A093CF
:102450001604B0931704BF91AF919F918F913F9154
:102460002F910F900FBE0F901F9018953FB7F894C3
:102470008091140490911504A0911604B091170452
:1024800026B5A89B05C02F3F19F00196A11DB11DCF
:102490003FBFBA2FA92F982F8827820F911DA11D0A
:1024A000B11DBC01CD0142E0660F771F881F991F47
:1024B0004A95D1F708958F929F92AF92BF92CF9293
:1024C000DF92EF92FF926B017C010E9436124B016A
:1024D0005C01C114D104E104F10401F10E9455230F
:1024E0000E943612DC01CB0188199909AA09BB099F
:1024F000883E9340A105B10560F321E0C21AD108DE
:10250000E108F10888EE880E83E0981EA11CB11C3A
:10251000C114D104E104F10419F7DBCFFF90EF906F
:10252000DF90CF90BF90AF909F908F900895789458
:1025300084B5826084BD84B5816084BD85B58260C8
:1025400085BD85B5816085BDEEE6F0E08081816066
:102550008083E1E8F0E01082808182608083808166
:1025600081608083E0E8F0E0808181608083E1EB3E
:10257000F0E0808184608083E0EBF0E08081816026
:102580008083EAE7F0E080818460808380818260DC
:1025900080838081816080838081806880831092C5
:1025A000C10008954F925F926F927F92AF92BF9257
:1025B000CF92DF92EF92FF920F931F93CF93DF930F
:1025C000CDB7DEB729013A019B01AC0124193509C9
:1025D0004609570989899A89AB89BC89BC01CD0113
:1025E0006A197B098C099D090E94C128A8019701DD
:1025F00024193509460957090E940729CA01B9015A
:102600006A0D7B1D8C1D9D1DDF91CF911F910F9138
:10261000FF90EF90DF90CF90BF90AF907F906F9042
:102620005F904F9008950895FC01808191810097FB
:1026300011F00C94122A0895CF93DF93EC01888156
:102640009981009711F00E94122A198218821D8226
:102650001C821B821A82DF91CF9108950F931F93E2
:10266000CF93DF93EC018B016F5F7F4F888199815E
:102670000E949B2A009731F0998388831B830A83E9
:1026800081E001C080E0DF91CF911F910F9108950B
:10269000CF93DF93EC0188819981892B29F08A817E
:1026A0009B818617970760F4CE010E942E13882322
:1026B00041F08C819D81892B19F4E881F981108288
:1026C00081E0DF91CF910895EF92FF920F931F93D6
:1026D000CF93DF93EC017B018A01BA010E9448137A
:1026E000811104C0CE010E941C1307C01D830C83FE
:1026F000B701888199810E946A2BCE01DF91CF9129
:102700001F910F91FF90EF900895FC0111821082AC
:1027100013821282158214826115710551F0FB013A
:1027200001900020E9F73197AF01461B570B0C943D
:10273000641308950F931F93CF93DF938C01EB01E4
:10274000FC01808191810097D1F0688179816115C8
:10275000710599F023E133E1232B79F04281538114
:102760002C813D814217530740F00E946A2B8C81D7
:102770009D81F8019583848313C00E94122A888169
:102780009981F801918380838A819B8193838283DD
:102790008C819D8195838483198218821B821A8281
:1027A0001D821C82DF91CF911F910F910895CF93CD
:1027B000DF93EC01FB018617970761F0608171815F
:1027C0006115710529F0448155810E94641302C08E
:1027D0000E941C13CE01DF91CF910895FC0111825C
:1027E000108213821282158214820C94D713CF9315
:1027F000DF93EC018617970711F00E949A13CE0120
:10280000DF91CF910895CF93DF93EC0161157105AE
:1028100059F0FB0101900020E9F73197AF01461B09
:10282000570B0E94641302C00E941C13CE01DF915B
:10283000CF910895EF92FF920F931F93CF93DF9361
:10284000CDB7DEB7A1970FB6F894DEBF0FBECDBFF0
:102850007C01CB01BA01F70111821082138212822E
:102860001582148242E0420F8E010F5F1F4F0E94BB
:102870005A29BC01C7010E940314A1960FB6F8940F
:10288000DEBF0FBECDBFDF91CF911F910F91FF90A3
:10289000EF900895FC01248135816217730748F495
:1028A00080819181009729F0FC01E60FF71F80815C
:1028B000089580E008950C944A144F925F926F92AD
:1028C0007F928F929F92AF92BF92CF92DF92EF92C0
:1028D000FF920F931F93CF93DF93FC015B01942E24
:1028E000822E8AE090E0938B828B80E89AE1A6E0CA
:1028F000B0E082A393A3A4A3B5A380E196E7A7EDDC
:10290000B5E486A397A3A0A7B1A72DEC3CE033A71D
:1029100022A783E393E795A784A737A726A791ABC0
:1029200080AB80E090E0A8ECB1EC82AB93ABA4ABC1
:10293000B5AB80E090E0AAEAB2E486AB97ABA0AF7B
:10294000B1AF12AE13AE14AE15AEDF01DE964AE99A
:1029500059E969E97DE34D935D936D937C931397FA
:1029600014961D921D921D921C921397EF01CA5B43
:10297000DF4F8AE999E9A9E1BEE388839983AA83B5
:10298000BB8324960AE919E929E93DEB08831983F9
:102990002A833B832496488359836A837B832496C6
:1029A0004AE959E969E17EEB488359836A837B836D
:1029B000249688839983AA83BB83DF01A65ABF4FDD
:1029C0001D921D921D921C92139714960AE919E903
:1029D00029E93EE30D931D932D933C931397149691
:1029E0001D921D921D921C92139714964DEC5CEC57
:1029F0006CE47FE34D935D936D937C9313971496F2
:102A00001D921D921D921C921397689680E090E093
:102A1000A0ECBFE388839983AA83BB8324960F2EFF
:102A2000FAE9CF2EF9E9DF2EED2CFEEBFF2EF02D8B
:102A3000C882D982EA82FB822496088319832A837A
:102A40003B8324960DEC1CEC2CE43FEB08831983AC
:102A50002A833B832496488359836A837B83249605
:102A600040E050E060EC7FEB488359836A837B83CE
:102A7000249688839983AA83BB83DF01A657BF4F1F
:102A80001D921D921D921C921397149600E010E067
:102A900020E430E40D931D932D933C9313971496EB
:102AA0001D921D921D921C921397149640E050E0C7
:102AB00060EA70E44D935D936D937C931397149645
:102AC0001D921D921D921C921397689680E090E0D3
:102AD000A0E7B1E488839983AA83BB8324961882F4
:102AE00019821A821B8224960F2EC12CD12CF0EF52
:102AF000EF2EF1E4FF2EF02DC882D982EA82FB820C
:102B00002496188219821A821B8224960F2E412C39
:102B1000512CF0E76F2EF2E47F2EF02D488259827F
:102B20006A827B822496188219821A821B822496DA
:102B30000F2E412C512CF8EC6F2EF2E47F2EF02D4D
:102B4000488259826A827B8224960F2E412C512C16
:102B5000F0E46F2EF0EC7F2EF02D488259826A82CD
:102B60007B822496088319832A833B83249600E082
:102B700010E020EA30EC088319832A833B832496F3
:102B8000488359836A837B83249640E050E060E762
:102B900071EC488359836A837B8324968883998365
:102BA000AA83BB83249640E050E060E371E448834D
:102BB00059836A837B83249640E050E06CE871E49B
:102BC000488359836A837B832496188219821A82E8
:102BD0001B82249688839983AA83BB83DF01AE512D
:102BE000BF4F1D921D921D921C9213971496CD9269
:102BF000DD92ED92FC921397B186A0869286838631
:102C0000DF91CF911F910F91FF90EF90DF90CF90C8
:102C1000BF90AF909F908F907F906F905F904F90FC
:102C20000895FC0160817181828193810895DC01A6
:102C30001B96EC911B974E2F50E04631510508F042
:102C40007CC0FA01EC5CFF4F0C942629DA964D917A
:102C50005D916D917C91DD975A964D935D936D9347
:102C60007C935D97FC01FE965EC0FC01EE5BFF4F1E
:102C70004FC0FC01E65BFF4F4BC0FC01EE5AFF4F1B
:102C800047C0FC01E65AFF4F43C0FC01EE59FF4F1D
:102C90003FC0FC01E659FF4F3BC0FC01EE58FF4F1F
:102CA00037C0FC01E658FF4F33C0FC01EE57FF4F21
:102CB0002FC0FC01E657FF4F2BC0FC01EE56FF4F23
:102CC00027C0FC01E656FF4F23C0FC01EE55FF4F25
:102CD0001FC0FC01E655FF4F1BC0FC01EE54FF4F27
:102CE00017C0FC01E654FF4F13C0FC01EE53FF4F29
:102CF0000FC0FC01E653FF4F0BC0FC01EE52FF4F2B
:102D000007C0FC01E652FF4F03C0FC01EE51FF4F2C
:102D100040815181628173815A964D935D936D9389
:102D20007C935D97349640815181628173815E9678
:102D30004D935D936D937C9391970895EF92FF92DD
:102D40000F931F93CF93DF93EC017B018A0144E043
:102D50006A85888599850E944E2390E0998B888B9F
:102D6000049709F041C088859985DC01ED91FC91BB
:102D70000284F385E02D09958C8788859985DC018F
:102D8000ED91FC910284F385E02D09958D8788856E
:102D90009985DC01ED91FC910284F385E02D099584
:102DA0008E8788859985DC01ED91FC910284F385FD
:102DB000E02D09958F878C858F7790E0982F882755
:102DC0002D85820F911DF701918380838E858F77EA
:102DD00090E0982F88272F85820F911DD8018D9321
:102DE0009C9381E090E002C08FEF9FEF9D8B8C8BD6
:102DF0008C899D89DF91CF911F910F91FF90EF906A
:102E00000895CF92DF92EF92FF920F931F93CF938B
:102E1000DF93EC01888599850E94B7224AA15BA1C6
:102E20006CA17DA1888599850E94C922CE010E944E
:102E3000171600E010E07E0188E1E80EF11C6E013B
:102E400086E1C80ED11C8A899B890817190798F456
:102E5000A701B601CE010E949E169D8B8C8B181681
:102E600019064CF06AE070E080E090E00E945B128E
:102E70000F5F1F4FE8CF8C899D89DF91CF911F9104
:102E80000F91FF90EF90DF90CF9008954F925F9257
:102E90006F927F928F929F92AF92BF92CF92DF926A
:102EA000EF92FF920F931F93CF93DF93EC01AC014E
:102EB000485E5F4FBC016A5E7F4F0E949E168C0188
:102EC0009D8B8C8B6AA47BA4CA8CDB8CEC8CFD8CD8
:102ED0006E897F896619770980E090E00E94BB0DBA
:102EE0004B015C016CA57DA566197709072E000CC6
:102EF000880B990B0E94BD0D2B013C01A701960187
:102F00006E8D7F8D88A199A10E94A60C9B01AC01BA
:102F1000C301B2010E94130D9B01AC01C501B401B4
:102F20000E94130DA70196010E94A70C2EA13FA19C
:102F300048A559A50E944F28688379838A839B837B
:102F40006EA47FA4CAA8DBA8ECA8FDA8688D798D23
:102F50006619770980E090E00E94BB0D4B015C018F
:102F600068A979A966197709072E000C880B990BB7
:102F70000E94BD0D2B013C01A70196016EA97FA9FE
:102F800088AD99AD0E94A60C9B01AC01C301B201B2
:102F90000E94130D9B01AC01C501B4010E94130DE9
:102FA000A70196010E94A70C6C837D838E839F836B
:102FB000C801DF91CF911F910F91FF90EF90DF90AB
:102FC000CF90BF90AF909F908F907F906F905F90C9
:102FD0004F900895EF920F93CF93DF93EC0188E128
:102FE000E6E0F1E0DE015C9601900D928A95E1F752
:102FF0006E834F8328878FEF8A8789870B87EB8EB5
:1030000081E08CABFE01FE96108211821282138247
:10301000CE5BDF4F19821882DF91CF910F91EF9035
:103020000895CF93DF93EC01DB01FA018A8D8230A2
:10303000A9F0833029F18130A1F58A819B81019724
:1030400020813181821B930B918380832D913C9150
:1030500011978D939C933183208323C0888199811C
:1030600001972D913C911197821B930B8D939C930B
:103070008A819B81019720813181821B930B0FC034
:103080008881998101972D913C911197821B930B17
:1030900011969C938E93208131812D933C93918343
:1030A0008083DF91CF910895FC0165AB83858823F0
:1030B00049F0662319F0638D70E002C060E070E0B3
:1030C0000C9456230895FC016370628F623021F0E6
:1030D000633049F0613039F080EB90E09183808378
:1030E0008CED90E006C08CED90E09183808380EBC6
:1030F00090E0938382830895FC01808191810895FB
:10310000FC01828193810895CF93DF93FC01A08914
:10311000B1899C91818D809589238C93A489B589EF
:103120009C91808D809589238C93828587FF11C027
:103130007EBD0DB407FEFDCF6EBD0DB407FEFDCF05
:10314000A489B5899C91808D892B8C93DF91CF9137
:10315000089520E130E040E050E8A485B5858689F7
:10316000EB01C423D5239C91CD2B11F0892B02C0F8
:10317000809589238C93A685B7859C918789892B17
:103180008C93A685B7859C918789809589238C939C
:10319000569547952150310901F7D2CFCF93DF9350
:1031A000FC01A089B1899C91818D892B8C93A48984
:1031B000B5899C91808D809589238C93828587FF2A
:1031C00011C07EBD0DB407FEFDCF6EBD0DB407FE70
:1031D000FDCFA489B5899C91808D892B8C93DF913B
:1031E000CF91089520E130E040E050E8A485B58516
:1031F0008689EB01C423D5239C91CD2B11F0892B1B
:1032000002C0809589238C93A685B7859C91878978
:10321000892B8C93A685B7859C9187898095892376
:103220008C93569547952150310901F7D2CF0F93D2
:103230001F93CF93DF93EC018A010E948418B80199
:10324000CE01DF91CF911F910F910C94CE18CF93A7
:10325000DF93EC014FEA50E066E370E00E9417193B
:1032600040E050E067E370E0CE010E9417194BED9B
:1032700050E068E370E0CE010E94171940E050E092
:1032800069E370E0CE01DF91CF910C941719DC0156
:10329000D7967C936E93D697FB018491D8968C93A6
:1032A000D89731968491D9968C93D9973196E49199
:1032B000DA96EC93DA97FB0133966491DB966C9384
:1032C000DB97982F969596959695DC969C93DC9730
:1032D000DD964C93DD97E82FE77019F09F5FDC9641
:1032E0009C930895CF93DF93FC01EC01EE968881C7
:1032F0009981AA81BB81AC01BD014F5F5F4F6F4FC8
:103300007F4F488359836A837B83892B8A2B8B2B3E
:1033100029F5828587FF1BC080917004882399F06E
:103320002FB7F89480917004813059F48DB3809355
:103330006E049DB380916F04809589238DBB2FBF50
:1033400002C020936E0480E58CBD81E08DBDA48910
:10335000B5899C91808D809589238C93DF91CF9145
:103360000895CF93DF93FC01EC01EE96888199815B
:10337000AA81BB810197A109B10988839983AA8396
:10338000BB83892B8A2B8B2BC9F4A489B5899C918B
:10339000808D892B8C93828587FF10C0809170046B
:1033A000882361F09FB7F8942091700480916E0497
:1033B000213019F48DBB9FBF01C08FBFDF91CF912A
:1033C0000895AF92BF92CF92DF92EF920F931F9327
:1033D000CF93DF93CDB7DEB7C454D1090FB6F894BD
:1033E000DEBF0FBECDBF6C017EAF6DAF21965FAF6C
:1033F0004EAF219723963FAF2EAF239725961FAF51
:103400000EAF25970E2D10E01F92EF9225968FADEF
:1034100025978F9324968FAD24978F9323968FAD06
:1034200023978F9322968FAD22978F9321968FADFE
:1034300021978F938FAD8F938EAD8F938DAD8F939B
:1034400081EA91E09F938F939E012F5F3F4F590137
:103450003F932F930E94712BB50182E793E00E9466
:10346000A110F6018081918101972DAD3EAD0FB67F
:10347000F894DEBF0FBECDBF8217930708F49C01FE
:103480003EAF2DAF23962EAD3FAD23978217930706
:1034900008F49C0123963FAF2EAF2397F60182815B
:1034A0009381019721962EAD3FAD21978217930707
:1034B00008F49C0121963FAF2EAF219725962EADA3
:1034C0003FAD25978217930708F49C0125963FAFDF
:1034D0002EAF2597AE01415C5F4FBE01635C7F4F0D
:1034E000C6010E941118AE014D5B5F4FBE016F5BBC
:1034F0007F4FC6010E94111823962EAD3FAD239732
:103500008DAD9EAD2817390730F43EAF2DAF239611
:103510009FAF8EAF239725962EAD3FAD2597219671
:103520008EAD9FAD21972817390740F421963FAF04
:103530002EAF219725969FAF8EAF2597C6010E948B
:103540007219F601828D882351F0960148E0849F1C
:10355000200D311D1124F801E20FF31FE4880E2D18
:1035600010E0A80183E0440F551F8A95E1F75061F0
:1035700063E070E0C6010E94171923964EAD5FAD5F
:10358000239766E370E0C6010E9417194DAD5EAD4A
:1035900067E370E0C6010E94171925964EAD5FAD36
:1035A000259768E370E0C6010E94171921964EAD79
:1035B0005FAD219769E370E0C6010E9417191F9261
:1035C000EF9225968FAD25978F9324968FAD2497F4
:1035D0008F9323968FAD23978F9322968FAD22974B
:1035E0008F9321968FAD21978F938FAD8F938EAD53
:1035F0008F938DAD8F9381ED91E09F938F93BF92C9
:10360000AF920E94712BB50182E793E00E94A11056
:103610000FB6F894DEBF0FBECDBFC8019595879554
:103620008130910581F03CF4892B59F523964EADFC
:103630005FAD23970AC08230910589F0039709F5A1
:103640004DAD5EAD10C04DAD5EAD60E270E0C60147
:103650000E94171925964EAD5FAD25970DC0239694
:103660004EAD5FAD239760E270E0C6010E9417196E
:1036700021964EAD5FAD219761E270E0C6010E94D8
:10368000171962E270E0C6010E948418C6010E9408
:10369000B119CC5BDF4F0FB6F894DEBF0FBECDBFC4
:1036A000DF91CF911F910F91EF90DF90CF90BF905E
:1036B000AF900895EF920F931F93E7E0EE2E0E94D4
:1036C000E1191F910F91EF9008956F927F928F9261
:1036D0009F92AF92BF92CF92DF92EF92FF920F93A1
:1036E0001F93CF93DF935C014B013A01E90168011D
:1036F0000E945A1BC5010E9472198FEFC81AD80A7E
:10370000C618D7082196C819D909CC9E4001CD9E6C
:10371000900CDC9E900C11248114910441F0B701AF
:10372000C5010E94CE1881E0881A9108F5CFC50125
:103730000E94B119C501DF91CF911F910F91FF90A8
:10374000EF90DF90CF90BF90AF909F908F907F9041
:103750006F900C942719DF92EF92FF920F931F93B3
:10376000CF93DF93EC01DA8C60E00E9463180A814A
:103770001B81015011092881398121503109E12C27
:10378000F12C40E050E060E070E0CE010E94651B4B
:103790006D2DCE010E9463186AE070E080E090E039
:1037A000DF91CF911F910F91FF90EF90DF900C94DC
:1037B0005B12CF93DF93EC018E8118163CF461E02D
:1037C0000E94DE2360E08E810E941A248B851816E9
:1037D0003CF461E00E94DE2360E0CE010E945418B8
:1037E00061E08F810E94DE2360E08F810E941A24B5
:1037F00061E088850E94DE2361E088850E941A24AA
:103800008885082E000C990BFC01EE5BFD4EE491BF
:10381000F0E0EE0FFF1FEA5AFD4E259134913D8BEB
:103820002C8BFC01E25DFD4EE491E88F8F81082E28
:10383000000C990BFC01EE5BFD4EE491F0E0EE0F05
:10384000FF1FEA5AFD4E25913491398B288BFC01DC
:10385000E25DFD4EE491E98F8A8587FD49C061E014
:1038600089850E94DE2360E089850E941A2461E038
:103870008A850E94DE2361E08A850E941A248A8557
:10388000082E000C990BFC01EE5BFD4EE491F0E07C
:10389000EE0FFF1FEA5AFD4EA591B491BF87AE8788
:1038A000FC01E25DFD4E84918F8B2985022E000C78
:1038B000330BF901EE5BFD4EE491F0E0EE0FFF1FDC
:1038C000EA5AFD4E459154915D874C87F901E25DBE
:1038D000FD4EE491EE8B9C91E82FE095E923EC936B
:1038E000EC85FD8590818E8980958923808306C033
:1038F0001F861E861F8A1D861C861E8A8A8587FD56
:103900000E9449248E811816ECF461E00E941A246A
:1039100061E070E080E090E00E945B1260E08E81E8
:103920000E941A246AE070E080E090E00E945B123E
:1039300061E08E810E941A2462E370E080E090E0F2
:103940000E945B12CE010E94721940E050E060E1DB
:1039500070E0CE010E94171940E050E061E170E094
:10396000CE010E94171940E050E062E170E0CE0104
:103970000E94171940E050E063E170E0CE010E9420
:10398000171940E050E064E170E0CE010E94171981
:10399000CE010E94B11968E270E080E090E00E94E0
:1039A0005B12CE010E94721948E150E061E170E0C3
:1039B000CE010E94171941E251E662E170E0CE01AA
:1039C0000E9417194FE650E063E170E0CE010E94BB
:1039D00017194FE559E464E170E0CE010E94171910
:1039E00040E058E060E170E0CE010E941719CE017E
:1039F0000E94B1196AE070E080E090E00E945B12E2
:103A0000CE010E9472194BE350E161E170E0CE01FA
:103A10000E941719CE010E94B11962E370E080E0A4
:103A200090E00E945B12CE010E9472194CE151E0BD
:103A300061E070E0CE010E94171940E051E062E0C1
:103A400070E0CE010E94171948E350E163E070E096
:103A5000CE010E94171940E050E067E070E0CE010F
:103A60000E94171948E058E068E070E0CE010E941B
:103A7000171940E051E16BE070E0CE010E94171988
:103A800040E050E06CE070E0CE010E94171941E088
:103A90005DE06FE070E0CE010E94171940E250E057
:103AA00065E170E0CE010E94171940E050E060E24D
:103AB00070E0CE010E94171940E050E061E270E032
:103AC000CE010E94171940E050E060E370E0CE01A3
:103AD0000E9417194BED50E061E370E0CE010E94A7
:103AE000171940E050E062E370E0CE010E94171920
:103AF00040E050E063E370E0CE010E9417194BED07
:103B000050E064E370E0CE010E94171940E050E0FD
:103B100065E370E0CE010E9417194FEA50E066E3BA
:103B200070E0CE010E94171940E050E067E370E0BA
:103B3000CE010E9417194BED50E068E370E0CE0112
:103B40000E94171940E050E069E370E0CE010E9446
:103B5000171940E050E060E570E0CE010E941719AF
:103B600048E058E061E570E0CE010E9417194AE094
:103B700058E062E570E0CE010E9417194AE050E07B
:103B800063E570E0CE010E94171948E05AE064E551
:103B900070E0CE010E94171948E058E065E570E03A
:103BA000CE010E94171940E050E066E570E0CE01BA
:103BB0000E94171940E05AE067E570E0CE010E94CC
:103BC000171940E157E068E570E0CE010E9417192F
:103BD00040E157E069E570E0CE010E94171942E12B
:103BE00050E067E070E0CE010E941719CE010E94FC
:103BF000B11962E370E080E090E00E945B12CE01B8
:103C00000E94721947E150E167E070E0CE010E9426
:103C10001719CE010E94B11961E0CE010E9454181B
:103C200060E0CE010E9463181D821C82CE01DF91EC
:103C3000CF910C94AB1BEF92FF920F931F93CF93F6
:103C4000DF9300D000D0CDB7DEB77A8369835C8381
:103C50004B83DC014D915C9111976417750768F5F2
:103C600012966D917C9113974B815C814617570793
:103C700020F579018C01AE014D5F5F4FBE016F5F92
:103C80007F4F0E941118C8010E94721949815A8100
:103C900060E270E0C8010E9417194B815C8161E20B
:103CA00070E0C8010E941719A70162E270E0C80124
:103CB0000E941719C8010E94B1190F900F900F9020
:103CC0000F90DF91CF911F910F91FF90EF9008958A
:103CD0002F923F924F925F926F927F928F929F921C
:103CE000AF92BF92CF92DF92EF92FF920F931F930A
:103CF000CF93DF9300D000D000D0CDB7DEB74C011A
:103D00007E836D836A015901FC82EB823801641A5B
:103D1000750A77FE03C071946194710875012D8155
:103D20003E81E21AF30AF7FE03C0F194E194F10830
:103D3000E614F7045CF49A2D8B2D5801092F182FE7
:103D40009D818E81DE82CD82C92ED82E8D819E816D
:103D5000A816B90658F49C2D8D2D6801092F182F2F
:103D60009D818E81BE82AD82A92EB82E95018D8156
:103D70009E81281B390B3A83298318012C183D0892
:103D800037FE03C031942194310849805A8057FE90
:103D900003C09FEF491A590A55944794C016D1069B
:103DA00018F00FEF1FEF02C001E010E0C4010E9405
:103DB00072192D813E81A216B30600F12B813C8140
:103DC000E614F70424F44D815E81B60103C0A60118
:103DD0006D817E81C4010E941B1E4218530857FE4C
:103DE00006C0C00ED11E89819A81480E591E2D81B0
:103DF0003E812F5F3F4F3E832D83DBCFC40126964C
:103E00000FB6F894DEBF0FBECDBFDF91CF911F91EB
:103E10000F91FF90EF90DF90CF90BF90AF909F9069
:103E20008F907F906F905F904F903F902F900C9469
:103E3000B1194F925F926F927F928F929F92AF9241
:103E4000BF92CF92DF92EF92FF920F931F93CF9387
:103E5000DF93EC014B013A01290168010E947219BC
:103E60009401A301B401CE010E94681E8301920156
:103E7000A301B401CE010E94681E86019201A60131
:103E8000B401CE010E94681E9201A301B201CE01CD
:103E90000E94681ECE01DF91CF911F910F91FF907C
:103EA000EF90DF90CF90BF90AF909F908F907F90DA
:103EB0006F905F904F900C94B1192F923F924F9258
:103EC0005F926F927F928F929F92AF92BF92CF92AA
:103ED000DF92EF92FF920F931F93CF93DF93CDB7B3
:103EE000DEB7C255D1090FB6F894DEBF0FBECDBF05
:103EF0003C017EAF6DAF2A0128963FAF2EAF2897C9
:103F000018012A96DFAECEAE2A972E96BFAEAEAE81
:103F10002E972F968FAE2F97C801079697FD07967D
:103F20009C0173E0359527957A95E1F724963FAF8C
:103F30002EAF2497A9963FADA997311105C080E80F
:103F400022968FAF229704C091E022969FAF2297CE
:103F5000F30183818F9382818F9381818F938081FD
:103F60008F938EEF91E09F938F938E010F5F1F4F82
:103F70001F930F930E94712BB80182E793E00E9478
:103F8000A1102DAD3EAD21963FAF2EAF21970FB6BC
:103F9000F894DEBF0FBECDBF37FF04C021961FAE21
:103FA0001EAE2197A20157FE02C040E050E0F3018F
:103FB000208131818DAD9EAD820D931D281739076B
:103FC00008F4C9019C012150310926963FAF2EAF5C
:103FD0002697F3018281938192012E0D3F1D821756
:103FE000930708F49C018901015011096901C41A61
:103FF000D50A66E0E62E26962EAD3FAD2697219691
:104000006EAD7FAD2197C3010E94E119C3010E94EB
:10401000721957FE05C0AA24BB24A418B50802C013
:10402000A12CB12C57FE05C0EE24FF24E418F5089E
:1040300002C0E12CF12C97012C0D3D1D2C963FAFB9
:104040002EAF2C9724968EAD9FAD2497A89E40014D
:10405000A99E900CB89E900C1124F12CE12C2C966A
:10406000EEADFFAD2C97AE16BF060CF094C0CDACF4
:10407000DEAC00E010E028962EAD3FAD2897280D6D
:10408000391D61963FAF2EAF6197C501840D951D17
:1040900063969FAF8EAF6397021513050CF071C046
:1040A000C80187709927892B49F0A9969FADA997D8
:1040B000992311F0F69428C0FF0C26C0A896EFAD06
:1040C000A897EE2391F0F80117FD379633E0F595A8
:1040D000E7953A95E1F7E80DF91D28962EAD3FAD2D
:1040E0002897E20FF31FF4900FC0C80117FD079641
:1040F00023E0959587952A95E1F76196EEADFFADA2
:104100006197E80FF91FF08021968EAD9FAD219742
:10411000C816D90684F12696EEADFFAD2697EC15AC
:10412000FD054CF122968FAD22978F21A9F0EE204C
:1041300071F02A962EAD3FAD2A9763964EAD5FADD6
:104140006397B601C3010E941B1EE12C14C02A967E
:104150006EAD7FAD2A9709C02F96FFAD2F97F11155
:1041600008C02E966EAD7FAD2E97C3010E94CE186B
:1041700002C0EE24E3940F5F1F4F2FEFC21AD20A42
:104180008BCF3FEFA31AB30A24968EAD9FAD249731
:10419000880E991E64CFC3010E94B119CE5ADF4F19
:1041A0000FB6F894DEBF0FBECDBFDF91CF911F9148
:1041B0000F91FF90EF90DF90CF90BF90AF909F90C6
:1041C0008F907F906F905F904F903F902F900895C9
:1041D0008F92AF92BF92CF92DF92EF92FF920F93A6
:1041E0001F931F92E1E0EF9388248394A12CB12CBC
:1041F0000E945D1F0F900F901F910F91FF90EF9005
:10420000DF90CF90BF90AF908F9008958E5B9F4FBF
:10421000FC017183608308952F923F924F925F92C9
:104220006F927F928F929F92AF92BF92CF92DF92C6
:10423000EF92FF920F931F93CF93DF9300D000D0A4
:1042400000D0CDB7DEB76C015B017A01FC01EE5BFB
:10425000FF4F40815181FA013496E4912E1BFA01FF
:1042600032968591949137E0239F800D911D112402
:10427000FA0125903490FC01259134913E832D83E1
:10428000FC01329634913A83319624912B833196F6
:1042900034913C833196849031969490C6010E946B
:1042A00072191982712C612C2701490C511C97FC41
:1042B0005A94A80CB11C87FCBA948B81681659F1EA
:1042C000E12CF12C4201860C911C89818E0D9A8182
:1042D000E916D8F4877051F48D819E810196ED81A5
:1042E000FE81E20DF31D74909E838D8377FE08C0DE
:1042F0009801A401B5016E0D7F1DC6010E941B1E11
:10430000770C2FEFE21AF20AE0CF39818A81380F59
:1043100039836394D2CFC6010E94B1192C81822FB8
:1043200090E026960FB6F894DEBF0FBECDBFDF91AA
:10433000CF911F910F91FF90EF90DF90CF90BF90A2
:10434000AF909F908F907F906F905F904F903F9035
:104350002F9008956F927F928F929F92AF92BF920B
:10436000CF92DF92FF920F931F93CF93DF936C0155
:10437000EB015A0139014801FC01EE5BFF4F8081DE
:104380009181892BC1F0F12C6F2D70E0F3018481B4
:1043900095816817790778F4C3010E945B14840142
:1043A000282FA501BE01C6010E940C212196C80F2D
:1043B000D91FF394E9CFDF91CF911F910F91FF9017
:1043C000DF90CF90BF90AF909F908F907F906F9035
:1043D000089580914C0490E020914D04821B910936
:1043E000089590914D0480914C04981750F4E92F52
:1043F000F0E0E25BFB4F208130E09F5F90934D0443
:1044000002C02FEF3FEFC9010895E0914D04809164
:104410004C04E81730F4F0E0E25BFB4F808190E061
:1044200008958FEF9FEF08950895CF93DF93EC01E8
:10443000E0912404F09125043097F1F090914D041F
:1044400080914C049817C0F090E0292F30E0261797
:10445000370754F4DE01A20FB31F4C91D901A25BC0
:10446000BB4F4C939F5FF1CF10924D0460934C046F
:10447000CB01DF91CF910994DF91CF910895E09125
:104480002604F0912704309729F010922A04109204
:10449000290409940895CF92DF92EF92FF920F932F
:1044A0001F93CF93DF937C01CB018A0120912804D5
:1044B000222389F0EB016B01C40ED51ECC15DD055E
:1044C00069F06991D701ED91FC910190F081E02DA7
:1044D000C7010995F3CF642F0E94BE24C801DF9164
:1044E000CF911F910F91FF90EF90DF90CF900895A3
:1044F000CF93DF931F92CDB7DEB769832091280455
:104500002223D1F020912904203240F021E030E034
:10451000FC013383228380E090E015C080912A045F
:10452000E82FF0E0E55DFB4F998190838F5F8093EA
:104530002A048093290405C061E0CE0101960E94FF
:10454000BE2481E090E00F90DF91CF910895FC01AF
:104550001382128288EE93E0A0E0B0E0848395831A
:10456000A683B78380E292E09183808308951092BE
:104570004D0410924C0410922A04109229040E94B7
:104580007F248FE392E20E94EB2485E192E20C9477
:10459000E624CB01BA010C94AA2481E0809328047C
:1045A00060934B0410922A041092290408950F93EB
:1045B000062F21E0409129046BE274E080914B04C6
:1045C0000E94F52510922A041092290410922804C2
:1045D0000F9108954F925F926F927F92AF92BF9228
:1045E000CF92EF92FF920F931F93CF93DF935C01D3
:1045F000F62ED42F28013901EE2021F10E94CD2280
:10460000CE2DC43008F0C3E0C150C0F028E0C29FF6
:10461000C0011124A301920104C056954795379516
:1046200027958A95D2F7CA01B901D501ED91FC9180
:104630000190F081E02DC5010995E6CF60E0C5014C
:104640000E94D7224D2FD13208F040E22C2D6EE48B
:1046500074E08F2D0E940C2510924D0480934C0421
:10466000DF91CF911F910F91FF90EF90CF90BF906E
:10467000AF907F906F905F904F900895CF92EF92A0
:104680000F931F93C22EE12C00E010E098010E94CE
:10469000EA221F910F91EF90CF90089521E00C94A2
:1046A0003E2388E194E00C94A72208951F93CF93B2
:1046B000DF93182FEB0161E00E94DE23209711F4B5
:1046C00060E004C0CF3FD10539F461E0812FDF9174
:1046D000CF911F910C941A24E12FF0E0E65EFD4E7D
:1046E000E491E330F9F048F4E130B9F0E230A1F5BB
:1046F00084B5806284BDC8BD34C0E730E9F0E830DD
:1047000019F1E43049F58091800080628093800047
:10471000D0938B00C0938A0024C084B5806884BD88
:10472000C7BD1FC080918000806880938000D093B7
:104730008900C093880015C08091B0008068809384
:10474000B000C093B3000DC08091B0008062809330
:10475000B000C093B40005C0C038D1050CF0B5CF8F
:10476000AFCFDF91CF911F910895833081F028F46E
:10477000813099F08230A1F008958730A9F0883017
:10478000B9F08430D1F4809180008F7D03C0809196
:1047900080008F7780938000089584B58F7702C062
:1047A00084B58F7D84BD08958091B0008F7703C05C
:1047B0008091B0008F7D8093B0000895CF93DF93F8
:1047C00090E0FC01E25DFD4E2491FC01EE5BFD4EAC
:1047D0008491882361F190E0880F991FFC01E05AD1
:1047E000FD4EC591D491FC01EA5AFD4EA591B491BC
:1047F000611109C09FB7F89488812095822388832E
:10480000EC912E230BC0623061F49FB7F89488813D
:10481000322F309583238883EC912E2B2C939FBFCE
:1048200006C08FB7F894E8812E2B28838FBFDF91C5
:10483000CF9108951F93CF93DF93282F30E0F90194
:10484000E65EFD4E8491F901E25DFD4ED491F901E1
:10485000EE5BFD4EC491CC23C1F0162F81110E9456
:10486000B523EC2FF0E0EE0FFF1FEA5AFD4EA591A5
:10487000B4919FB7F894111104C08C91D095D823AE
:1048800002C0EC91DE2BDC939FBFDF91CF911F9193
:104890000895CF93CFB7F89480917104811127C008
:1048A000ECE4F2E18491E8E3F2E19491E82FF0E0A6
:1048B000EE0FFF1FE05AFD4EA591B491EC91E92354
:1048C00021F461E08AE00E941A2461E08AE00E94FB
:1048D000DE238CB580618CBD8CB580648CBD61E0BD
:1048E0008DE00E94DE2361E08BE00E94DE23809158
:1048F00071048F5F80937104CFBFCF9108951092A0
:10490000E50481E08093E3041092E20461E082E137
:104910000E941A2461E083E10E941A24E9EBF0E08E
:1049200080818E7F808380818D7F808388E48093E7
:10493000B80085E48093BC000895ECEBF0E0808142
:104940008A7B808360E082E10E941A2460E083E138
:104950000C941A249B01AC0160E074E284EF90E0B7
:104960000E94E528DA01C9014097A109B109B6956D
:10497000A795979587958093B800089540919404E2
:10498000262F30E0240F311D21323105DCF4209137
:10499000E5042430C9F4FC0180E090E0861758F467
:1049A000309194042191DC01AA56BB4FA30FB11D95
:1049B0002C930196F3CF80919404680F6093940434
:1049C00080E0089581E0089582E008959093D904ED
:1049D0008093D80408959093DB048093DA040895BB
:1049E00085EC8093BC001092E5040895CF93DF938B
:1049F00091E09093DD04882361F0C091B800D091DC
:104A0000BA000E949D240E947F24D093BA00C093D4
:104A1000B800DF91CF9108954F925F926F927F928D
:104A20008F929F92AF92BF92CF92DF92EF92FF92BE
:104A30000F931F93CF93DF93F82E162F072FC42FBA
:104A4000E22E413208F0BEC00E9436124B015C01DA
:104A5000D091E504DD2331F18091DE049091DF04F3
:104A6000A091E004B091E104892B8A2B8B2B81F378
:104A70000E9436124090DE045090DF046090E00403
:104A80007090E104DC01CB0188199909AA09BB09DE
:104A9000481659066A067B06D8F68091DC040E9407
:104AA000F62490C081E08093E504E092E3049FEF58
:104AB000909372041092B7049C0F9093B604809365
:104AC000E4049091E4048F2D880F892B8093E404F3
:104AD0008091E204813089F51092E2040E9436123E
:104AE0006B017C018091E4048093BB008091DE0423
:104AF0009091DF04A091E004B091E104892B8A2B0E
:104B00008B2BA9F00E9436128090DE049090DF0477
:104B1000A090E004B090E104DC01CB018C199D0968
:104B2000AE09BF0988169906AA06BB0690F18091C6
:104B3000BC0083FDD7CF85EC01C085EE8093BC001F
:104B40000E9436126B017C018091E504813031F5C1
:104B50008091DE049091DF04A091E004B091E10423
:104B6000892B8A2B8B2B81F30E9436128090DE04D6
:104B70009090DF04A090E004B090E104DC01CB0150
:104B80008C199D09AE09BF0988169906AA06BB06AD
:104B9000D8F68091DC040E94F62415C08091B704F9
:104BA0008C1710F4C091B704A8EBB4E0912FE12F5B
:104BB000F02F8E2F891B8C1718F48D918193F9CFCC
:104BC000DC2F01C0D0E08D2FDF91CF911F910F918D
:104BD000FF90EF90DF90CF90BF90AF909F908F901D
:104BE0007F906F905F904F9008954F925F926F9279
:104BF0007F928F929F92AF92BF92CF92DF92EF926D
:104C0000FF920F931F93CF93DF93413208F0C6C0FA
:104C1000122FF42ED72EE62ED82F0E9436124B01DB
:104C20005C01C091E504CC2311F18091DE049091E8
:104C3000DF04A091E004B091E104892B8A2B8B2B37
:104C400081F30E9436124090DE045090DF046090A1
:104C5000E0047090E104DC01CB0188199909AA09EC
:104C6000BB09481659066A067B06D8F683C082E05F
:104C70008093E5040093E3048FEF80937204109215
:104C8000B704F092B6049E2DA8EBB4E0EE2DFD2DF6
:104C90008E2F891B8F1518F481918D93F9CF109267
:104CA000E4049091E404DD0FD92BD093E4048091C7
:104CB000E204813089F51092E2040E9436126B0101
:104CC0007C018091E4048093BB008091DE0490918C
:104CD000DF04A091E004B091E104892B8A2B8B2B97
:104CE000A9F00E9436128090DE049090DF04A0901C
:104CF000E004B090E104DC01CB018C199D09AE0900
:104D0000BF0988169906AA06BB06A0F18091BC00CF
:104D100083FDD7CF85EC01C085EE8093BC000E9457
:104D200036126B017C01112359F18091E504823028
:104D300039F58091DE049091DF04A091E004B091F8
:104D4000E104892B8A2B8B2B71F30E943612809001
:104D5000DE049090DF04A090E004B090E104DC0158
:104D6000CB018C199D09AE09BF0988169906AA06C0
:104D7000BB06C8F68091DC040E94F624C5E013C08F
:104D8000809172048F3F79F080917204803241F0FB
:104D900080917204803331F0C4E005C0C1E003C0EB
:104DA000C2E001C0C3E08C2FDF91CF911F910F9122
:104DB000FF90EF90DF90CF90BF90AF909F908F903B
:104DC0007F906F905F904F90089585ED8093BC0029
:104DD0008091DE049091DF04A091E004B091E104A1
:104DE0000796A11DB11D23E0B695A79597958795C8
:104DF0002A95D1F72091BC0024FF1CC04091DE040D
:104E00005091DF046091E0047091E104452B462B42
:104E1000472B81F30097A105B10541F025E32A95C1
:104E2000F1F700000197A109B109E4CF8091DC04FA
:104E30000C94F6241092E50408951F920F920FB679
:104E40000F9211242F933F934F935F936F937F9310
:104E50008F939F93AF93BF93EF93FF938091B9008C
:104E6000887F803609F49EC078F5883209F45DC0E9
:104E700090F4803109F456C038F4882309F4F5C061
:104E8000883009F44FC0F5C0883109F44EC0803233
:104E900009F45FC0EEC0803409F46AC058F480336E
:104EA00009F457C0883309F0E4C0809372040E946B
:104EB000F024DFC0803509F44FC0883509F45DC0A7
:104EC000883409F0D6C0D3C0883909F4C4C0A8F426
:104ED000883709F467C038F4883609F463C080372E
:104EE00009F460C0C6C0883809F4B5C0803909F437
:104EF0005FC0803809F0BDC05BC0803B09F483C04F
:104F000038F4803A09F466C0883A09F47CC0B1C02C
:104F1000803C09F4A4C0883C09F4A1C0883B09F492
:104F200087C0A7C08091E40410C09091B70480911D
:104F3000B604981770F5E091B70481E08E0F809366
:104F4000B704F0E0E854FB4F80818093BB0085EC10
:104F500083C0809372048BC0E091B70481E08E0F10
:104F60008093B7048091BB00F0E0E854FB4F80834E
:104F70009091B7048091B6046BC0E091B70481E0D2
:104F80008E0F8093B7048091BB00F0E0E854FB4F94
:104F900080838091E30481116AC081E08093E20400
:104FA00084EA5EC083E08093E50410927304CFCF5F
:104FB00080917304803208F04EC0E091730481E068
:104FC0008E0F809373048091BB00F0E0EC58FB4F90
:104FD0008083BDCF0E94F02480917304803230F42E
:104FE000E0917304F0E0EC58FB4F10826091730481
:104FF00070E0E091D804F091D90484E794E0099539
:105000001092730436C084E08093E50410929504F6
:1050100010929404E091DA04F091DB0409958091F8
:105020009404811105C081E0809394041092960449
:10503000E091950481E08E0F80939504F0E0EA56AC
:10504000FB4F80818093BB009091950480919404E4
:10505000981708F47CCF85E88093BC000AC085ECE3
:105060008093BC001092E50404C0109272040E9468
:10507000E526FF91EF91BF91AF919F918F917F9125
:105080006F915F914F913F912F910F900FBE0F90B5
:105090001F9018950E944E0E08F481E008950E941A
:1050A00062280C940F0E0E94010E38F00E94080E28
:1050B00020F0952311F00C94F80D0C94FE0D1124A2
:1050C0000C94430E0E94200E70F3959FC1F3950F30
:1050D00050E0551F629FF001729FBB27F00DB11D7C
:1050E000639FAA27F00DB11DAA1F649F6627B00D0C
:1050F000A11D661F829F2227B00DA11D621F739FF5
:10510000B00DA11D621F839FA00D611D221F749F02
:105110003327A00D611D231F849F600D211D822F49
:10512000762F6A2F11249F5750409AF0F1F0882370
:105130004AF0EE0FFF1FBB1F661F771F881F91509D
:105140005040A9F79E3F510580F00C94F80D0C9447
:10515000430E5F3FE4F3983ED4F3869577956795C9
:10516000B795F795E7959F5FC1F7FE2B880F911DC7
:105170009695879597F908950E944E0E880B990B86
:105180000895DB018F939F930E942C29BF91AF91CB
:10519000A29F800D911DA39F900DB29F900D112491
:1051A000089597FB072E16F4009407D077FD09D0D9
:1051B0000E94372907FC05D03EF4909581959F4FBA
:1051C0000895709561957F4F0895A1E21A2EAA1B4C
:1051D000BB1BFD010DC0AA1FBB1FEE1FFF1FA217A7
:1051E000B307E407F50720F0A21BB30BE40BF50BA4
:1051F000661F771F881F991F1A9469F7609570952D
:10520000809590959B01AC01BD01CF010895052EBD
:1052100097FB1EF400940E941E2957FD07D00E94A0
:10522000E52807FC03D04EF40C941E2950954095B8
:10523000309521953F4F4F4F5F4F08959095809542
:10524000709561957F4F8F4F9F4F0895EE0FFF1F11
:105250000590F491E02D09940E944B29A59F900D93
:10526000B49F900DA49F800D911D11240895AA1B39
:10527000BB1B51E107C0AA1FBB1FA617B70710F041
:10528000A61BB70B881F991F5A95A9F78095909573
:10529000BC01CD010895A29FB001B39FC001A39F9F
:1052A000700D811D1124911DB29F700D811D11245F
:1052B000911D0895EF920F931F93CF93DF93E80111
:1052C00047FD02C034E001C034E1042E000C550B50
:1052D00057FF03C0519541955109E32E022F242F0A
:1052E000AE010E94742DCE01DF91CF911F910F91DD
:1052F000EF9008950F931F93CF93DF938230910522
:1053000010F482E090E0E091E804F091E90420E0FC
:1053100030E0A0E0B0E0309719F140815181028186
:10532000138148175907C8F08417950769F4109737
:1053300031F012960C93129713961C9327C000938A
:10534000E8041093E90422C02115310519F0421731
:10535000530718F49A01BD01EF01DF01F801DBCF1B
:1053600021153105F9F0281B390B2430310580F463
:105370008A819B816115710521F0FB0193838283F2
:1053800004C09093E9048093E804FE01329644C07F
:10539000FE01E20FF31F819391932250310939836B
:1053A00028833AC02091E6043091E704232B41F48E
:1053B00020910201309103013093E7042093E60429
:1053C00020910001309101012115310541F42DB7E3
:1053D0003EB74091040150910501241B350BE0912B
:1053E000E604F091E704E217F307A0F42E1B3F0B4D
:1053F0002817390778F0AC014E5F5F4F2417350747
:1054000048F04E0F5F1F5093E7044093E6048193EA
:10541000919302C0E0E0F0E0CF01DF91CF911F91C6
:105420000F910895CF93DF93009709F481C0FC0199
:10543000329713821282A091E804B091E904109788
:1054400081F420813181820F931F2091E6043091F5
:10545000E7042817390751F5F093E704E093E604D1
:1054600067C0ED0120E030E0CE17DF0740F44A814D
:105470005B819E0141155105F1F0EA01F5CFD3831F
:10548000C28340815181840F951FC817D90759F4F1
:1054900088819981840F951F0296918380838A81E8
:1054A0009B81938382832115310529F4F093E904CC
:1054B000E093E8043DC0E901FB83EA8349915991F7
:1054C000C40FD51FEC17FD0761F480819181840F13
:1054D000951F0296E90199838883828193819B833A
:1054E0008A83E0E0F0E012968D919C9113970097EB
:1054F00019F0FD01DC01F7CF8D919C9111979D0171
:105500002E5F3F4F820F931F2091E6043091E704F6
:105510002817390769F4309729F41092E90410929A
:10552000E80402C013821282B093E704A093E60459
:10553000DF91CF910895A0E0B0E0E1EAFAE20C94A7
:105540005A30EC01009721F4CB010E947A29B4C0B3
:10555000FC01E60FF71F9C0122503109E217F30707
:1055600008F4A8C0D9010D911C91119706171707CF
:10557000B0F00530110508F49BC0C80104978617E8
:10558000970708F495C002501109061B170B0193E9
:1055900011936D937C93CF010E94122A89C05B0105
:1055A000A01AB10A4C01800E911EA091E804B0919E
:1055B000E904612C712CE12CF12C109709F446C000
:1055C0008D919C911197A815B905B1F56C0142E038
:1055D000C40ED11CCA14DB0478F14C018A189B0854
:1055E000640142E0C40ED11C1296BC90129713962F
:1055F000AC91B5E0CB16D10440F0B282A383918286
:105600008082D9016D937C9309C00E5F1F4F800F7C
:10561000911FF90191838083EB2DFA2FE114F1049E
:1056200031F0D7011396FC93EE93129741C0F0939B
:10563000E904E093E8043CC06816790608F43C01EC
:105640007D0112960D90BC91A02DB7CF8091E604FC
:105650009091E70488169906E1F466167706C8F477
:105660008091000190910101009741F48DB79EB7A0
:105670004091040150910501841B950BE817F9072F
:10568000C8F4F093E704E093E604F90171836083C2
:105690000FC0CB010E947A297C01009759F0A80124
:1056A000BE010E94612BCE010E94122AC70104C0D4
:1056B000CE0102C080E090E0CDB7DEB7EEE00C9402
:1056C0007630FB01DC0102C001900D924150504048
:1056D000D8F70895FB01DC0101900D920020E1F75D
:1056E0000895AEE0B0E0E7E7FBE20C9464300D898A
:1056F0001E8986E08C831A8309838FEF9FE79E8340
:105700008D83AE01475E5F4F6F89788DCE01019624
:105710000E94932BEF81F885E00FF11F10822E96E7
:10572000E4E00C948030ABE0B0E0E9E9FBE20C94FB
:1057300056306C017B018A01FC011782168283813D
:1057400081FFCCC1CE0101963C01F6019381F701A6
:1057500093FD859193FF81917F01882309F4BAC15C
:10576000853239F493FD859193FF81917F018532D4
:1057700029F4B60190E00E94BC2FE7CF912C212C98
:10578000312CFFE1F315D8F08B3279F038F4803208
:1057900079F08332A1F4232D20611DC08D3261F098
:1057A000803369F4232D216016C0832D8260382E4A
:1057B000E32DE4603E2E2AC0F32DF8601DC037FCB7
:1057C0002DC020ED280F2A3040F08E32B9F436FC7F
:1057D00081C1232D2064322E19C036FE06C08AE016
:1057E000989E200D1124922E11C0EAE02E9E200DCD
:1057F0001124222EF32DF0623F2E08C08C3621F4A6
:10580000832D8068382E02C0883641F4F70193FD5D
:10581000859193FF81917F018111B3CF982F9F7D57
:105820009554933028F40C5F1F4F9FE399830DC06C
:10583000833631F0833771F0833509F059C021C0C8
:10584000F801808189830E5F1F4F88248394912CF7
:10585000530113C02801F2E04F0E511CF801A08043
:10586000B18036FE03C0692D70E002C06FEF7FEF9C
:10587000C5010E94B12F4C018201F32DFF773F2E0D
:1058800016C0280122E0420E511CF801A080B18010
:1058900036FE03C0692D70E002C06FEF7FEFC501D7
:1058A0000E94A62F4C01F32DF0683F2E820133FC9D
:1058B0001BC0822D90E088169906B0F4B60180E2F4
:1058C00090E00E94BC2F2A94F4CFF50137FC85911B
:1058D00037FE81915F01B60190E00E94BC2F21103C
:1058E0002A9421E0821A91088114910471F7E8C08A
:1058F000843611F0893641F5F80137FE07C0608122
:105900007181828193810C5F1F4F08C0608171811A
:10591000072E000C880B990B0E5F1F4FF32DFF769F
:105920003F2E97FF09C090958095709561957F4FA8
:105930008F4F9F4FF0683F2E2AE030E0A3010E9476
:10594000F82F882E861845C0853731F4232D2F7EF9
:10595000B22E2AE030E025C0932D997FB92E8F36E4
:10596000C1F018F4883579F0B5C0803719F0883760
:1059700021F0B0C0E92FE061BE2EB4FE0DC0FB2DBA
:10598000F460BF2E09C034FE0AC0292F2660B22E53
:1059900006C028E030E005C020E130E002C020E190
:1059A00032E0F801B7FE07C0608171818281938186
:1059B0000C5F1F4F06C06081718180E090E00E5F38
:1059C0001F4FA3010E94F82F882E8618FB2DFF770A
:1059D0003F2E36FE0DC0232D2E7FA22E891458F4A3
:1059E00034FE0BC032FC09C0832D8E7EA82E05C06C
:1059F000B82CA32C03C0B82C01C0B92CA4FE0FC036
:105A0000FE01E80DF11D8081803321F49A2D997EED
:105A1000A92E09C0A2FE06C0B394B39404C08A2D77
:105A2000867809F0B394A3FC11C0A0FE06C0B2149E
:105A300088F4280C922C9B180EC0B21460F4B601A6
:105A400080E290E00E94BC2FB394F7CFB21418F418
:105A50002B1802C0982C212CA4FE10C0B60180E3A4
:105A600090E00E94BC2FA2FE17C0A1FC03C088E7F3
:105A700090E002C088E590E0B6010CC08A2D8678DF
:105A800059F0A1FE02C08BE201C080E2A7FC8DE2CA
:105A9000B60190E00E94BC2F891438F4B60180E36F
:105AA00090E00E94BC2F9A94F7CF8A94F301E80DFE
:105AB000F11D8081B60190E00E94BC2F8110F5CFCE
:105AC000222009F442CEB60180E290E00E94BC2F71
:105AD0002A94F6CFF6018681978102C08FEF9FEF5F
